:020000040000FA
:100A0000F0EF0BF00000000096EF09F049504C3574
:0C0A1000582076302E313400C9EF0AF077
:10130000F0EF0BF00000000096EF09F049504C356B
:0C131000582076302E313400C9EF0AF06E
:02132A000000C1
:04132C009E9484A661
:101330000CD021A00BD121ACF8D021A477D02194DE
:1013400021BA0BD080500C0B08E02190218221980B
:1013500033C0BEFF34C0BFFFE7D0E9CF13F0EACF00
:1013600014F0E1CF15F0E2CF16F0010EEA6E020E96
:10137000E26E1E50080FE16EE96EC00E2C6E030E79
:10138000EBAE2C82EBAEE280E650EE26E650EE228B
:10139000E650EE22E650EE22E290030EEBAE2C84F5
:1013A000EBAEE280E650EE26E650EE22E650EE226C
:1013B000E650EE22E290030EEBAE2C86EBAEE2801E
:1013C000E650EE26E650EE22E650EE22E650EE2201
:1013D000E290030EEBAE2C88EBAEE280E650EE26F8
:1013E000E650EE22E650EE22E650EE22E290030EA8
:1013F000EBAE2C8AEBAEE280E650EE26E650EE2213
:10140000E650EE22E650EE22E290070EEA6E2CC085
:10141000E9FFEE50811AEE50831A13C0E9FF14C0A1
:10142000EAFF15C0E1FF16C0E2FF1100E1CF15F0A1
:10143000E2CF16F0020EE26E9E94030E8114291084
:10144000816E0F0E83142A10836E21841E50E16E6C
:10145000E60654E2E60652E2E60650E2E6064EE210
:1014600021A6A18C21B22190E16E200F1F6206D02F
:10147000E66AE66AE66AE66A219452D0E2801E6E67
:10148000E16EE6CF2BF02BAE12D021902194A19CDF
:1014900021A6828C1E6A200E1F6E226A236A246A8D
:1014A000D59EF29433C0BEFF34C0BFFF39D0D89070
:1014B000244A232AD8B0222AE6CF29F0E6CF2AF000
:1014C000030E81142910816E0F0E83142A10836E6F
:1014D000E6502BBC076E2BAA0AD0E6502D6EBE6ECE
:1014E000E6502E6EBF6ED76AD66AD58E05D033C051
:1014F000BEFF34C0BFFFD59EF29412D02BAA10D0ED
:10150000040FE16EE6060CE2E6060AE2E60608E2F1
:10151000E60606E22B882B86D76AD66AD58EF29429
:1015200015C0E1FF16C0E2FF110021AE06D784B05E
:1015300006D03BC02FF03CC030F0316A84802F06CB
:10154000F3E23006F1E2218C3168EED784B021AEAF
:10155000EBD731AE15D0F3CF17F0F4CF18F03744F6
:101560003B02F3CF2FF0F4CF30F0316A37443C0226
:10157000F3503026F450312217C0F3FF18C0F4FFA7
:101580002F06D2E23006D0E23106CEE28490219CD2
:10159000CBD71B6ED8381D6EE9CF19F0EACF1AF001
:1015A000A0BCA1AC0AD0A19C82BC07D0200E1F24F5
:1015B0001E6201D002D09E96C96AF2BAF2A434D05B
:1015C000F29421B02BAA2FD02BB817D0BE50336283
:1015D00004D0BF50346201D026D0F29EBE06D8A0FF
:1015E000BF06CE50BE5CCF50BF5802E6F28E1CD074
:1015F000CF6ACE6A9E84F28E17D0BE502D6204D080
:10160000BF502E6201D008D0CD90BD6ABE4ABF2A1D
:101610000B0EBD6ECD8008D021A205D0219033C025
:10162000BEFF34C0BFFFD59E19C0E9FF1AC0EAFF54
:101630001D38D86E1B3A1B381000129E45EC11F075
:10164000940EF66E170EF76E000EF86E7AEC11F02F
:101650008CEC10F03D6A5AD00D5013E09DEC10F068
:101660008CEC10F00D50F8E1E86AA4EC11F0E86A97
:10167000A4EC11F0E86AA4EC11F08CEC10F00D5021
:10168000EBE19DEC10F08CEC10F00D50FAE00D50F9
:101690004CEF0BF054EF0BF0020AD8B453EF0BF001
:1016A000020A58EF0BF0020A86EF0BF060EF0BF026
:1016B000010AD8B45FEF0BF0010A65EF0BF0010AE5
:1016C000FF0086EF0BF06DEF0BF0400AD8B46CEF23
:1016D0000BF0400A77EF0BF0400A3D06D8A886EFE2
:1016E0000BF0020E3D6E86EF0BF07FEF0BF0200A41
:1016F000D8B47EEF0BF0200A86EF0BF0200A3D2ACB
:10170000030E3D18D8B43D6A86EF0BF01282000E2E
:101710004BEC11F03D508FEF0BF097EF0BF0000A00
:10172000D8B496EF0BF0000AA3EF0BF0000AA40E5A
:10173000F66E170EF76E000EF86E7AEC11F0C9EF28
:101740000BF0ABEF0BF0010AD8B4AAEF0BF0010AD3
:10175000B7EF0BF0010AB80EF66E170EF76E000E1B
:10176000F86E7AEC11F0C9EF0BF0BFEF0BF0020A44
:10177000D8B4BEEF0BF0020AC9EF0BF0020ACC0E90
:10178000F66E170EF76E000EF86E7AEC11F0C9EFD8
:101790000BF062D74D656E75205072696E6369708B
:1017A000616C00005E76204465706C6163656D65F8
:1017B0006E747320202000005E76204465636F7590
:1017C0007065206669636869657200005E76204313
:1017D00068616E6765207461626C6520202000007E
:1017E000AAEC11F0F4EC10F057EC13F09DEC10F0B3
:1017F0008CEC10F00DB221D76AEC13F000017A5195
:101800000308D8A4F6EF0BF01282000E4BEC11F097
:10181000740EF66E220EF76E000EF86E7AEC11F072
:101820006AEC13F09DEC10F08CEC10F06AEC13F005
:10183000040108BF6BEF10F0CDEC19F06AEC13F067
:1018400000017B5126EF0CF02EEF0CF0420AD8B4C9
:101850002DEF0CF0420A71EF0CF0420A420EBB6F02
:10186000BC697C671BD021902194A19C2192828C21
:10187000200E1F6E1E6A020EEA6EE96AEE6AEE6ABA
:10188000EE6AEE6A226A236A246A21962B6AD59E42
:1018900033C0BEFF34C0BFFF63EF10F07CAF03D096
:1018A000218063EF10F07CA103D0218663EF10F05C
:1018B0007CA312D0828C2196829C030E6DEC10F0DA
:1018C0007D516DEC10F07E516DEC10F07F516DECA0
:1018D00010F0A18C63EF10F0BC6B63EF10F079EFA8
:1018E0000CF0440AD8B478EF0CF0440A20EF0DF065
:1018F000440A440EBB6F21A6B1D0BC691F501E62C2
:1019000001D0ACD000EE7CF0030EE26E1FC0E1FF10
:10191000EF50E00BE66E036E03BE8BD027EE80F037
:10192000EE443E0BD926DECFE6FFDECFE6FFE290A7
:101930001FC0E1FFEE50286E2804E66EEE50276EC1
:10194000D8A02704E66EEE50266ED8A02604E66ED8
:10195000EE50256ED8A02504E66EBC6BD8A07ED0D4
:10196000040EE126EECFE6FFEECFE6FFEECFE6FF78
:10197000EECFE6FFEECFE6FFEECFE6FFEECFE6FFDF
:10198000EECFE6FFEECFE6FFEECFE6FFEECFE6FFCF
:10199000EECFE6FFEECFE6FFEECFE6FFEECFE6FFBF
:1019A000EECFE6FFEECFE6FFEECFE6FFEECFE6FFAF
:1019B000EECFE6FF010EDA6E1F50080FD96EE16E12
:1019C000050E006EE2902850E65CDE6E2750E65869
:1019D000DE6E2650E658DE6E2550E658DE6E040EAA
:1019E000D95EE15EE2802850DE5CE66E2750DE586C
:1019F000E66E2650DE58E66E2550DE58E66E002E66
:101A0000E1D71F50030FE16E03BCEE503664365031
:101A1000E66E03AA0ED0EECFE6FFEECFE7FFE29030
:101A2000E106EECFE6FFEECFE6FFEECFE6FFEECF2C
:101A3000E6FF200E1F26010EBC6F10D028EF0DF020
:101A4000490AD8B427EF0DF0490A4CEF0DF0490AC6
:101A5000490EBB6FBC691F501E62BC6B1E501F5CE1
:101A6000E83AE842E806070BBD6F24C0BEF023C089
:101A7000BFF022C0C0F021C0C1F080401F0B84B66F
:101A8000E88AC26F07C0C3F008C0C4F00DC0C5F03B
:101A900063EF10F054EF0DF0560AD8B453EF0DF089
:101AA000560A6BEF0DF0560A600EF66E220EF76EB8
:101AB000000EF86E00EEBBF0560EEE6EA69CA68EE3
:101AC0000900F550D8B463EF10F0EE6EF9D763EF6C
:101AD00010F073EF0DF04F0AD8B472EF0DF04F0A0B
:101AE0008BEF0DF04F0AA69EA69C7C5103E138B007
:101AF000219A03D07C2D01D0218A4F0EBB6F21BAD1
:101B0000BC8138B0BC8380B4BC8580B6BC8763EF31
:101B100010F093EF0DF04D0AD8B492EF0DF04D0A8E
:101B2000A5EF0DF04D0A7C51D8B4219CD8B4849017
:101B30007C05D8B4218CD8B484804D0EBB6F21BCF9
:101B4000BC8163EF10F0ADEF0DF0500AD8B4ACEFEC
:101B50000DF0500AC9EF0DF0500A7C5102E12198B6
:101B600004D07C2D06D080A821887D513664365063
:101B7000076E500EBB6F21B8BC8180A2BD8180A8CA
:101B8000BD8307C0BEF008C0BFF063EF10F0D1EF17
:101B90000DF0530AD8B4D0EF0DF0530A28EF0EF031
:101BA000530A7C51D8A409D021A02FD021902182A2
:101BB00033C0BEFF34C0BFFF28D07C2F08D021A087
:101BC00024D021822BAAF0D72B88D58E1ED07C2F33
:101BD00019D021B01AD021A218D0245023102210DD
:101BE000D8B413D021922BAA0BD02D50BE6E2E50FC
:101BF000BF6ED76AD66A2B9821802BA6D58E05D0CA
:101C0000218003D07C2F63EF10F0530EBB6F245064
:101C100023102210D8A4BC8121A2BC9121A0BC8396
:101C200021B2BC8524C0BDF023C0BEF022C0BFF0ED
:101C3000020EE26E1E50E16EE6CFC0F0E6CFC1F0BC
:101C4000E6CFC2F0E6CFC3F063EF10F030EF0EF056
:101C5000540AD8B42FEF0EF0540ABEEF0EF0540A17
:101C6000030EBD6163EF10F0540EBB6F7C51BC6F6F
:101C700008E1A69EA69CA96AA680A8CFBDF063EF46
:101C800010F07C071DE1A96A7DC0A8FF47EC13F0A6
:101C9000A69EA69CA680A850BC697D63BC6B7D6394
:101CA00063EF10F0CADB12AE63EF10F012920E0E6B
:101CB000F2DA070E006E32C0A9FF25DB63EF10F0E9
:101CC0007C0702E163EF10F07C070BE100EEBDF052
:101CD0007D51EE6E550DF328A96E210E04DA63EFE7
:101CE00010F07C070DE1BC6B00EE7DF0EE50550D61
:101CF000F328A96E210E01DAE8A0BC6963EF10F0A9
:101D00007C070CE100EEBDF07D51EE6E550DF32821
:101D1000230FA96E1E0EE7D963EF10F07C070EE1CA
:101D2000BC6B00EE7DF0EE50550DF328230FA96E2D
:101D30001E0EE3D9E8A0BC6963EF10F07C070CE14C
:101D400000EEBDF07D51EE6E550DF328410FA96EEA
:101D5000140EC9D963EF10F07C070CE1BC6B00EEE8
:101D60007DF0EE50550DF328410FA96E140EC5D924
:101D7000E8A0BC6963EF10F0C6EF0EF04C0AD8B4CF
:101D8000C5EF0EF04C0A06EF0FF04C0A4C0EBB6F7D
:101D900012927C512DE012827C072AE07C0704E13C
:101DA000129EBC6B63EF10F07C0713E1128E010EE4
:101DB000BC6F12920C0E4BEC11F0540EAEDA3A0ED0
:101DC000ACDA070E006E32C0A9FF9DDAF8D963EFD6
:101DD00010F07C0706E1000E12BE010EBC6F63EF2F
:101DE00010F053DA000E12BE010EBC6F63EF10F05C
:101DF0007D5151DA7E51006E00EE7FF0EE508DDAAB
:101E0000002EFCD763EF10F00EEF0FF0590AD8B494
:101E10000DEF0FF0590A3BEF0FF0590A590EBB6F47
:101E20007C5104E1B9EC12F063EF10F07C0704E19F
:101E3000BEEC12F063EF10F07C0709E17D51EEEC8F
:101E400012F0C4CFBCF0C3CFBDF063EF10F07C073D
:101E500005E17D51C3EC12F063EF10F07C0707E160
:101E60007D517EC0C4FF7FC0C3FFD1EC12F063EF91
:101E700010F043EF0FF05A0AD8B442EF0FF05A0AAD
:101E800056EF0FF05A0A550E7C19D8A463EF10F0E4
:101E9000AA0E7D19D8A463EF10F07EB1D0827EA186
:101EA000D092FF0063EF10F05EEF0FF0460AD8B457
:101EB0005DEF0FF0460A80EF0FF0460A828C460E67
:101EC000BB6F829C9F0E6DEC10F0000E6DEC10F05D
:101ED000BC6F000E6DEC10F0BD6F000E6DEC10F0DD
:101EE000BE6F828C0000829C050E6DEC10F0000E1F
:101EF0006DEC10F0BF6F828C63EF10F088EF0FF085
:101F0000450AD8B487EF0FF0450AECEF0FF0450A09
:101F1000828C450EBB6F829C030E6DEC10F07C51E1
:101F20006DEC10F0000E6DEC10F0000E6DEC10F08A
:101F3000036A006A000E6DEC10F0E83E09D0002E36
:101F4000F9D7032EF6D7010EBC6F828C63EF10F029
:101F5000828C0000829C060E6DEC10F0828C0000DA
:101F6000829CD80E6DEC10F07C516DEC10F0000EE0
:101F70006DEC10F0000E6DEC10F0828C0000829C75
:101F8000050E6DEC10F0000E6DEC10F0E8B0FBD714
:101F9000828C0000829C030E6DEC10F07C516DEC85
:101FA00010F0000E6DEC10F0000E6DEC10F0036AF6
:101FB000006A000E6DEC10F0E83E08D0002EF9D754
:101FC000032EF6D7BC69828C63EF10F0BC6B828C59
:101FD00063EF10F0F4EF0FF0520AD8B4F3EF0FF004
:101FE000520A17EF10F0520A828C0000829C030EF6
:101FF0006DEC10F07C51BC6F6DEC10F07D51BD6F3D
:102000006DEC10F07E51BE6F6DEC10F0520EBB6F98
:1020100000EEBFF0200E036E000E6DEC10F0EE6EC1
:10202000032EFAD7828C63EF10F01FEF10F0570ADF
:10203000D8B41EEF10F0570A5FEF10F0570A828CE9
:102040000000829C060E6DEC10F0828C0000829CD9
:10205000020E6DEC10F000EE7CF0230E036EEE50DD
:102060006DEC10F0032EFBD7828C0000829C050ED5
:102070006DEC10F0000E6DEC10F0E8B0FBD7828C28
:10208000570EBB6F829C030E6DEC10F07C516DEC13
:1020900010F07D516DEC10F07E516DEC10F000EE03
:1020A0007FF0200E036E000E6DEC10F0EE18D8A439
:1020B00003D0032EF8D7BC69828C63EF10F0000EBA
:1020C000BB6F63EF10F06AEC13F004010CBF63EF19
:1020D00010F0E9EC19F010EF0CF09E96C96E9EA678
:1020E000FED7C9501200006EA69EA69CA680A8CF5F
:1020F000EEFFA92A002EFAD71200006EEFCFA8FF3C
:1021000047EC13F0A69EA69CA680A850EE62000C99
:10211000A92A002EF3D7010C0F0E951282809490FD
:102120000F0E83149480828494940D6E8338F00B88
:102130000D129484F00E95161200C280C282C2B2B3
:10214000FED7C290C336C434C336E834036E0C5C89
:10215000D8B8E81C030806E203C00CF0C45036648B
:102160003650086E075036643650076E80B20850FD
:10217000096E80B8219880B802D00BB82188120E61
:10218000801421B8E8800B5E0B6ED8A405D00950EE
:102190000A5E0A6ED8B412000A500BA821A8000EDD
:1021A000BB6EBA50CF0BBBBE3009BA6E39A405D096
:1021B000BB50D8A4808AD8B4809A12AE1200128282
:1021C0000E0E69D84D0E0BA2410EA7D83A0EA5D817
:1021D0000950640DF4CF0EF0F3BE0E2A0E5062D8F3
:1021E000250E21A8230E99D0E86AAED81290030ECE
:1021F0009CD84E0EA9D8030E98D84E0EA5D8030E23
:1022000094D84E0EA1D8020E90D84E0E9DD8280E0E
:1022100084D8C10E99D80C0E80D8060E7ED8010E37
:102220007CD8280E91D8600EF66E220EF76E000E46
:10223000F86E60D8200E71D8540E6FD83A0E6DD853
:10224000070E006E32C0A9FF5ED81282000E23D89E
:102250006C0EF66E220EF76E000EF86E4BD8120062
:1022600049504C35582076302E3134004F4B3D4D7F
:10227000656E75004D4F4445205553420000414C5A
:1022800045525420544D523100001290010E45D851
:1022900012801A0E59D0129012B2400980093DD80E
:1022A000128012000E6E0E380E240F0BD8B2160FCD
:1022B00007000EB8150F0EBA300F0EBC600F0EBE21
:1022C000200F07000F6EE86AE8360EBEE82A07E125
:1022D000200E23D80F380F0BD8B4F00E04D0300FD7
:1022E0001CD80F380F0B300F18D80F500F0B300FB2
:1022F00014D812001280A69CA68E0900F550D8B4FE
:1023000012000BD8F7D71280A69CA69EA680A850D4
:1023100004D8A92A002EFAD71200116E113805D858
:10232000115003D8010E10D81200849212B084828A
:102330008484F00983160F0B831200000000000054
:102340000000000084941200106A102EFED7E82EC0
:10235000FBD71200F26AF16AF06A9D6AA06A9F6A6E
:10236000A26AD08E806A3F0E926E816A010E936ED1
:10237000F19E826A828C050E946E828C836A000EB6
:10238000956E846A080E966E000EC76E300EC66E8D
:10239000C950C36AC46A000EC26E0E0EC16E3E0EF4
:1023A000C06E000ECD6ECF6ACE6A0B0EBD6E880E6B
:1023B000B16EB36AB26A030ECA6ECC6ACB680F0EF6
:1023C000BA6EBC6ABB6A070EB46EB56A0C6A086A5C
:1023D000076A096A010E0A6E0B6A216A218E126A67
:1023E000128E1E6A200E1F6E226A236A246A20D86B
:1023F00000EE7BF010EEBBF00001010E006F00510B
:102400004008D8A00AEF12F0EE6AE66A0001002B3D
:10241000FFEF11F09E949D849F84F294F28AF194D0
:10242000A19CA08CA29CF28CF28ECA84CD8012005A
:10243000A69EA69CA96AA680A850550DF328326EC8
:102440000D0FA96E07EE80F0800E006EEE6A002E72
:10245000FDD75E0EF66E250EF76E000EF86E0A0EB4
:10246000016E036AA680070EA81604E0D880033622
:10247000A82EFDD7A68E0900F5CF04F00900F5CFF0
:1024800005F0A69EA680A85020E007EE80F0006A26
:10249000A8AC04D00450EE120550ED120350001405
:1024A00003E1E92AE92A0DD0A8BE05D00450EE1AAE
:1024B0000550EE1A06D0E98C0450EE1A0550EE1ABB
:1024C000E99C002A200E0018E3E1A92A012EC9D7B1
:1024D00000EE33F0080E006EA680A8CFEEFFA92A0A
:1024E000002EFAD707EE80F0030E8114EE10816EF5
:1024F0000F0E8314EE10836E33C0BEFF34C0BFFFD7
:10250000800E406E8D0E3F6E5B0E3E6E33C042F00D
:1025100034C041F006EC1AF040C03BF03FC03CF044
:102520007F0E3716219E3766218E218A38B0219A78
:1025300039A202D0928A0AD039A403D0809A929A02
:1025400005D039A2809A39B2808A929AD56A352804
:10255000E8A6D58C070BD512D76AD66A1200800080
:10256000400020001000080004000080004000200F
:102570000010819C8198818E010E50D0819C8198A1
:10258000819E010E4BD0036E060E016E819C03B03E
:10259000818C818843D8819841D80332012EF6D7A7
:1025A0001200F1DFD890C336C436080E016E819C4C
:1025B000C3B0818C818832D8819830D8C332012E43
:1025C000F6D7080E016E819CC4B0818C818826D814
:1025D000819824D8C432012EF6D71200D4DFC36A02
:1025E000090E016E81881AD8819818D8938CC3423D
:1025F00081BCC38E012EF6D7C46A060E016E818897
:102600000DD881980BD8C44281BCC48A012EF7D75B
:10261000818804D88198939C819C00D0060E00008C
:10262000106E102EFED71200A69CA68EA684A68839
:102630003BEC13F0A6941200A69CA68E400E016EF1
:102640000900F5CFEEFF012EFBD71200C00EF616E3
:1026500014EC13F0A6840A00020E016E200E026E26
:10266000EECFF5FF0F00022EFBD73BEC13F0012E4F
:10267000F5D7A6941200F29E550EA76EAA0EA76E6D
:10268000A682F28E1200A69CA69EA6801200A69C90
:10269000A69EA684F29EF29C550EA76EAA0EA76E69
:0E26A000A682F28EF28CA6B2FED7A69412008D
:0226AE00696A57
:1026B000686A140E6F6E080E6D6E00016D6B706BA4
:1026C0007A6B010E6E6F6F6FFF0E716F6DBA66EFF2
:1026D00013F012006EEF13F071EF13F068A276EFB3
:1026E00013F06A6A1EEF14F079EF13F068AC7EEF16
:1026F00013F0689C1EEF14F081EF13F068A887EFC9
:1027000013F068986D821EEF14F08AEF13F068A43E
:1027100090EF13F068946D921EEF14F093EF13F0A6
:1027200068AA98EF13F0689A1EEF14F09BEF13F06D
:1027300068A0CFEF13F000016D6B689668966896FD
:102740006896706A716A726A736A746A756A766A80
:10275000776A786A796A7A6A7B6A7C6A7D6A7E6A55
:102760007F6A0401400E016F800E026F040E036F3A
:10277000880E006FC00E066F040E076F080E046F00
:102780006E6A686A160E706EFF0E6B6E0001010EA7
:102790007A6F010E6E6F1EEF14F0D2EF13F068A681
:1027A0001EEF14F0040EEA6E6C507C0BE96E000113
:1027B000EE50606FEE50616FEE50626FEE50636FDF
:1027C0006C50796F68966C6B60513C0BEAEF13F0BC
:1027D000F2EF13F0340AD8B4F1EF13F0340AF8EF43
:1027E00013F0340A1FEC14F012EF14F000EF14F0A1
:1027F000240AD8B4FFEF13F0240A06EF14F0240AD9
:10280000FFEC18F012EF14F00EEF14F0040AD8B435
:102810000DEF14F0040A12EF14F0040A5AEC19F048
:1028200012EF14F000016CA11CEF14F00401400E33
:10283000016F840E046F006F1EEF14F01200000190
:102840006351EA6E6251E96EEE50646FEE50656F4F
:10285000EE50666FEE50676FEE50686FEE50696F26
:10286000EE506A6FEE506B6F0401400E016F080E60
:10287000046F000164BF4FEF14F06A510008D8B430
:1028800044EF14F049EF14F06B510008D8B44CEF4A
:1028900014F0C80E4DEF14F0880E50EF14F0880EAF
:1028A0000401006F6D980001FF0E716F6451600BA1
:1028B0005CEF14F064EF14F0000AD8B463EF14F086
:1028C000000A6AEF14F0000A86EC14F085EF14F0A9
:1028D00072EF14F0200AD8B471EF14F0200A78EFE8
:1028E00014F0200A70EC18F085EF14F080EF14F06B
:1028F000400AD8B47FEF14F0400A84EF14F0400A85
:10290000FDEC18F085EF14F06C81120065518BEF2F
:1029100014F093EF14F0000AD8B492EF14F0000A08
:1029200070EF15F0000A64511F0B99EF14F0A1EF3E
:1029300014F0000AD8B4A0EF14F0000AB3EF14F0BA
:10294000000A04010751EA6E0651E96E00016E515A
:10295000EE6EEF6A0401020E056FC80E046F6CEF95
:1029600015F0BBEF14F0010AD8B4BAEF14F0010A65
:10297000EEEF14F0010A7A51C0EF14F0C8EF14F032
:10298000020AD8B4C7EF14F0020ACDEF14F0020A1D
:102990006C81EAEF14F0D5EF14F0030AD8B4D4EF49
:1029A00014F0030AEAEF14F0030A010E685DD8B0D0
:1029B000E7EF14F004010751EA6E0651E96EEE6A82
:1029C000EF6A020E056FC80E046FE8EF14F06C8119
:1029D000EAEF14F06CEF15F0F6EF14F0020AD8B439
:1029E000F5EF14F0020A6BEF15F0020A7A51FBEFD3
:1029F00014F003EF15F0020AD8B402EF15F0020A42
:102A000027EF15F0020A68510F0BD8A422EF15F03A
:102A100004010751EA6E0651E96E000168AF15EF37
:102A200015F00401045117EF15F004010051040BD7
:102A3000EF6EEF42EF42EC6A020E056FC80E046FB4
:102A400023EF15F06C8169EF15F02FEF15F0030AF5
:102A5000D8B42EEF15F0030A68EF15F0030A04014D
:102A60000751EA6E0651E96E0F0EE26E700EE16ECE
:102A7000040EDA6E000168518F0BD96ED946D94623
:102A8000D946000ED926D8A047EF15F0DA2A6851AA
:102A90000F0B68AF52EF15F0E3B252EF15F06C81F7
:102AA00066EF15F068BF5BEF15F0E3B45BEF15F070
:102AB0006C8166EF15F0DF50040BEF6EEF42EF42D2
:102AC000EC6A0401020E056FC80E046F69EF15F081
:102AD0006C816CEF15F06C816FEF18F078EF15F0EA
:102AE000010AD8B477EF15F0010A7AEF15F0010A60
:102AF00082EF15F0030AD8B481EF15F0030A30EF26
:102B000016F0030A64511F0B88EF15F090EF15F0D3
:102B1000000AD8B48FEF15F0000AB1EF15F0000AE3
:102B2000665195EF15F09DEF15F0010AD8B49CEFB2
:102B300015F0010AACEF15F0010A65510108D8A49F
:102B4000A5EF15F06E93A6EF15F06E830401056BEB
:102B5000C80E046FADEF15F06C812CEF16F0B9EFD5
:102B600015F0020AD8B4B8EF15F0020A2BEF16F0F0
:102B7000020A7A51BEEF15F0C6EF15F0020AD8B47A
:102B8000C5EF15F0020AD6EF15F0020A68510F0BD7
:102B9000D8A4D1EF15F00401056BC80E046FD2EF75
:102BA00015F06C8129EF16F0DEEF15F0030AD8B4AA
:102BB000DDEF15F0030A28EF16F0030A0F0EEA6E98
:102BC000700EE96E040EE26E000EE16E68510F0B9E
:102BD000D8B41FEF16F0E926D8A0F0EF15F0EA2AD6
:102BE0006847684768457C0BE126D8A0F9EF15F0E7
:102BF000E22A68A30EEF16F0EFA20BEF16F0655174
:102C00000108D8A407EF16F0E76A09EF16F0840E62
:102C1000E76E0CEF16F06C811FEF16F0EFA41EEFBD
:102C200016F065510108D8A41AEF16F0880EE76E69
:102C30001CEF16F0840EE76E1FEF16F06C816CB17E
:102C400026EF16F00401056BC80E046F29EF16F08D
:102C50006C812CEF16F06C816FEF18F038EF16F0E6
:102C6000050AD8B437EF16F0050A4AEF16F0050A40
:102C700066AF3EEF16F06C8146EF16F0050E716FF1
:102C80006651726F0401056BC80E046F6FEF18F088
:102C900052EF16F0060AD8B451EF16F0060A8DEF7F
:102CA00017F0060A716F675158EF16F060EF16F0D3
:102CB000010AD8B45FEF16F0010A7BEF16F0010AA3
:102CC000000E736F000E746F000E756FFEEC1BF03C
:102CD000766F6B510008D8A475EF16F076516A5DD7
:102CE000D8B075EF16F06A51766FA0EC19F089EF45
:102CF00017F083EF16F0020AD8B482EF16F0020A3A
:102D0000BBEF16F0020A665188EF16F090EF16F04E
:102D1000000AD8B48FEF16F0000A98EF16F0000AF8
:102D2000120E736F000E746F000E756F99EF16F030
:102D30006C816CB1B7EF16F0020E7327000E74238E
:102D40007523FEEC1BF0766F020E735F000E745B52
:102D5000755B6B510008D8A4B5EF16F076516A5D2B
:102D6000D8B0B5EF16F06A51766FA0EC19F089EF84
:102D700017F0C3EF16F0030AD8B4C2EF16F0030A37
:102D800015EF17F0030A6651C8EF16F0D0EF16F0F2
:102D9000000AD8B4CFEF16F0000ADAEF16F0000AF6
:102DA0005D0E736F000E746F000E756FFDEF16F001
:102DB000E2EF16F0010AD8B4E1EF16F0010AECEFE9
:102DC00016F0010A610E736F000E746F000E756FBE
:102DD000FDEF16F0F4EF16F0020AD8B4F3EF16F098
:102DE000020AFCEF16F0020A770E736F000E746F82
:102DF000000E756FFDEF16F06C816CB111EF17F0DE
:102E0000FEEC1BF0766F6B510008D8A40FEF17F0A3
:102E100076516A5DD8B00FEF17F06A51766FA0EC6B
:102E200019F089EF17F01DEF17F0210AD8B41CEF45
:102E300017F0210A4BEF17F0210A665122EF17F025
:102E40002AEF17F0000AD8B429EF17F0000A32EF82
:102E500017F0000A240E736F000E746F000E756F6A
:102E600033EF17F06C816CB147EF17F0FEEC1BF0FD
:102E7000766F6B510008D8A445EF17F076516A5D64
:102E8000D8B045EF17F06A51766FA0EC19F089EFD2
:102E900017F053EF17F0220AD8B452EF17F0220AB6
:102EA00088EF17F0220A665158EF17F060EF17F01D
:102EB000000AD8B45FEF17F0000A62EF17F0000ABB
:102EC0006AEF17F0010AD8B469EF17F0010A74EF3E
:102ED00017F0010A220E766F3B0E736F000E746FAF
:102EE000000E756F75EF17F06C816CB186EF17F0FF
:102EF0006B510008D8A484EF17F076516A5DD8B002
:102F000084EF17F06A51766FA0EC19F089EF17F093
:102F10006C816FEF18F095EF17F0080AD8B494EFB2
:102F200017F0080AA6EF17F0080A04010751EA6E25
:102F30000651E96E00016D51EF6E0401010E056F3F
:102F4000C80E046F6FEF18F0AEEF17F0090AD8B48F
:102F5000ADEF17F0090AF4EF17F0090A66510108FE
:102F6000D8A0EFEF17F0716A726A736A746A756AB3
:102F7000766A776A786A796A7A6A7B6A7C6A7D6A35
:102F80007E6A7F6A66516D6FC8EF17F0D0EF17F059
:102F9000000AD8B4CFEF17F0000AD4EF17F0000AF8
:102FA000020E7A6FE9EF17F0030E7A6F0401400EFC
:102FB000096F000E0A6F050E0B6F880E086F400E2A
:102FC0000D6F400E0E6F050E0F6F480E0C6F1E0E2C
:102FD000716E0401056BC80E046FF0EF17F06C8181
:102FE0006FEF18F0FCEF17F00A0AD8B4FBEF17F0F8
:102FF0000A0A22EF18F00A0A7A5101EF18F009EFD5
:1030000018F0030AD8B408EF18F0030A1DEF18F0FF
:10301000030A010E685DD8B01AEF18F004010751D9
:10302000EA6E0651E96EEF6A010E056FC80E046F75
:103030001BEF18F06C811EEF18F06C816FEF18F029
:103040002AEF18F00B0AD8B429EF18F00B0A5AEF40
:1030500018F00B0A7A512FEF18F037EF18F0030A27
:10306000D8B436EF18F0030A55EF18F0030A010E32
:10307000685DD8B052EF18F0665141EF18F049EF93
:1030800018F0000AD8B448EF18F0000A4FEF18F013
:10309000000A0401056BC80E046F50EF18F06C8134
:1030A00053EF18F06C8156EF18F06C816FEF18F049
:1030B00062EF18F0070AD8B461EF18F0070A64EF5E
:1030C00018F0070A6CEF18F00C0AD8B46BEF18F080
:1030D0000C0A6CEF18F00C0A6C816FEF18F01200FC
:1030E000655175EF18F07DEF18F0010AD8B47CEF48
:1030F00018F0010A9AEF18F0010A00EE7BF007C4FD
:10310000E2FF06C4E1FF0001010E006F0051240838
:10311000D8A091EF18F0EECFE6FF0001002B86EF6C
:1031200018F00401240E056FC80E046FFCEF18F0B0
:10313000A2EF18F0090AD8B4A1EF18F0090AA7EF16
:1031400018F0090A716FFCEF18F0AFEF18F0030ADE
:10315000D8B4AEEF18F0030AC0EF18F0030A040168
:103160000751EA6E0651E96E00016F51EF6E0401DE
:10317000010E056FC80E046FFCEF18F0C8EF18F0D1
:103180000B0AD8B4C7EF18F00B0AD2EF18F00B0AED
:1031900066516F6F0401056BC80E046FFCEF18F0E9
:1031A000DAEF18F0020AD8B4D9EF18F0020AEBEF00
:1031B00018F0020A04010751EA6E0651E96E000197
:1031C0007051EF6E0401010E056FC80E046FFCEF25
:1031D00018F0F3EF18F00A0AD8B4F2EF18F00A0A60
:1031E000FBEF18F00A0A6651706F0401056BC80EF8
:1031F000046FFCEF18F06C8112006C81120000016A
:103200007951180B06EF19F00EEF19F0000AD8B437
:103210000DEF19F0000A43EF19F0000A715113EF96
:1032200019F01BEF19F0050AD8B41AEF19F0050AC6
:1032300033EF19F0050A72516E6E21EF19F029EF84
:1032400019F0000AD8B428EF19F0000A2DEF19F090
:10325000000A010E7A6F2FEF19F0020E7A6F3FEF1E
:1032600019F03BEF19F0060AD8B43AEF19F0060A44
:103270003FEF19F0060AA0EC19F03FEF19F059EFF3
:1032800019F04BEF19F0080AD8B44AEF19F0080A00
:103290004FEF19F0080A59EF19F057EF19F0100A1B
:1032A000D8B456EF19F0100A59EF19F0100A59EF77
:1032B00019F0120000017951180B61EF19F069EF54
:1032C00019F0000AD8B468EF19F0000A89EF19F074
:1032D000000A71516EEF19F076EF19F0090AD8B4AF
:1032E00075EF19F0090A7DEF19F0090AFF0E716FE9
:1032F00004010351EA6E0251E96E0401400E016FB0
:10330000880E006F056BC80E046F9FEF19F091EFE8
:1033100019F0080AD8B490EF19F0080A95EF19F0DF
:10332000080A9FEF19F09DEF19F0100AD8B49CEF2E
:1033300019F0100A9FEF19F0100A9FEF19F0120010
:103340000001400E765DD8B0ABEF19F0FF0E716F43
:103350007651ACEF19F0400E765F786F0401056F7F
:103360000751EA6E0651E96E0001010E776F775141
:10337000785DD8A0C6EF19F0FEEC1BF0EE6E732B53
:10338000000E74237523772BB7EF19F00401400E5C
:103390000419400B8809046F120000EE7BF00BC487
:1033A000E2FF0AC4E1FF0001010E006F0051240892
:1033B000D8A0E0EF19F0E6CFEEFF002BD6EF19F022
:1033C0000401240E096F0851400B400A8809086F58
:1033D000120000EEBBF00FC4E2FF0EC4E1FF0001DB
:1033E000010E006F00512408D8A0FDEF19F0EFCFB7
:1033F000E6FFEE6A002BF2EF19F00401240E0D6FC8
:103400000C51400B400A88090C6F1200436A446A51
:10341000036A3E34443643364250445E4150435A78
:10342000E86A035A3E363E34443643360336425049
:103430003EA022EF1AF0445E4150435AE86A035A14
:1034400027EF1AF0442641504322E86A03223E3611
:103450003E3444364336033642503EA037EF1AF02E
:10346000445E4150435AE86A035A3CEF1AF044263E
:1034700041504322E86A03223E363E344436433606
:10348000033642503EA04CEF1AF0445E4150435A7E
:10349000E86A035A51EF1AF0442641504322E86A81
:1034A00003223E363E3444364336033642503EA075
:1034B00061EF1AF0445E4150435AE86A035A66EFDE
:1034C0001AF0442641504322E86A03223E363E3435
:1034D00044364336033642503EA076EF1AF0445E3F
:1034E0004150435AE86A035A7BEF1AF04426415090
:1034F0004322E86A03223E363E34443643360336DE
:1035000042503EA08BEF1AF0445E4150435AE86AA5
:10351000035A90EF1AF0442641504322E86A0322EE
:103520003E363E3444364336033642503EA0A0EF8A
:103530001AF0445E4150435AE86A035AA5EF1AF064
:10354000442641504322E86A03223E363F34443643
:103550004336033642503EA0B5EF1AF0445E415068
:10356000435AE86A035ABAEF1AF0442641504322FC
:10357000E86A03223F363F3444364336033642502E
:103580003FA0CAEF1AF0445E4150435AE86A035A1A
:10359000CFEF1AF0442641504322E86A03223F3617
:1035A0003F3444364336033642503FA0DFEF1AF033
:1035B000445E4150435AE86A035AE4EF1AF0442645
:1035C00041504322E86A03223F363F3444364336B3
:1035D000033642503FA0F4EF1AF0445E4150435A84
:1035E000E86A035AF9EF1AF0442641504322E86A88
:1035F00003223F363F3444364336033642503FA021
:1036000009EF1BF0445E4150435AE86A035A0EEF3B
:103610001BF0442641504322E86A03223F363F34E0
:1036200044364336033642503FA01EEF1BF0445E43
:103630004150435AE86A035A23EF1BF04426415095
:103640004322E86A03223F363F344436433603368A
:1036500042503FA033EF1BF0445E4150435AE86AAA
:10366000035A38EF1BF0442641504322E86A0322F4
:103670003F363F3444364336033642503FA048EF8E
:103680001BF0445E4150435AE86A035A4DEF1BF069
:10369000442641504322E86A03223F3640344436F0
:1036A0004336033642503FA05DEF1BF0445E41506D
:1036B000435AE86A035A62EF1BF044264150432202
:1036C000E86A0322403640344436433603364250DB
:1036D00040A072EF1BF0445E4150435AE86A035A1F
:1036E00077EF1BF0442641504322E86A032240361C
:1036F0004034443643360336425040A087EF1BF037
:10370000445E4150435AE86A035A8CEF1BF044264A
:1037100041504322E86A032240364034443643365F
:103720000336425040A09CEF1BF0445E4150435A88
:10373000E86A035AA1EF1BF0442641504322E86A8D
:10374000032240364034443643360336425040A0CC
:10375000B1EF1BF0445E4150435AE86A035AB6EF9A
:103760001BF0442641504322E86A0322403640348D
:10377000443643360336425040A0C6EF1BF0445E49
:103780004150435AE86A035ACBEF1BF0442641509C
:103790004322E86A03224036403444364336033637
:1037A000425040A0DBEF1BF0445E4150435AE86AB0
:1037B000035AE0EF1BF0442641504322E86A0322FB
:1037C00040364034443643360336425040A0F0EF92
:1037D0001BF0445E4150435AE86A035AF5EF1BF070
:1037E000442641504322E86A0322403640B0FDEFB0
:0C37F0001BF04250442641504322000CC4
:0437FC000001160EA4
:103800007325F66E380E7421F76E000E7521F86E72
:103810000800F55012001201000200000040D80418
:10382000AA00140001020001090229000101008020
:103830003209040000020300000009210101000117
:103840002222000705810340000107050103400013
:103850000106A0FF0901A1010903150026FF00755B
:1038600008952481020904150026FF007508952497
:103870009102C0040309041603350058002D0050BE
:103880000052004F004A004500430054001803490D
:103890000050004C00350058002000760030002E0B
:0538A0000031003400BE
:020000040030CA
:0100000024DB
:010001000EF0
:010002003FBE
:010003001EDE
:0100050001F9
:010006008178
:010008000FE8
:01000900C036
:01000A000FE6
:01000B00E014
:01000C000FE4
:01000D0040B2
:0200000400F00A
:100000000150617363616C20200506090A00C30377
:10001000C1010000C404C202580207CC0A01050055
:0A0056004D4D3230303120200506F8
:10006000090A000383018104840282000058020708
:05007000CC0A000500B0
:0200AA00000054
:00000001FF
