:020000040000FA
:100A000047EF07F00000000016EF05F000000000BF
:0C0A1000000000000000000028EF06F0CD
:020A2A000000CA
:040A2C00808A9E948A
:100A300084A60AD01BA0FED01BA485D01B941BBA91
:100A400007D080500C0B04E01B901B941B98F2D035
:100A5000E9CF0FF0EACF10F0E1CF11F0E2CF12F0C2
:100A6000010EEA6E020EE26E1850080FE16EE96E9A
:100A7000266A030EEBAE2680EBAEE280E650EE2651
:100A8000E650EE22E650EE22E650EE22E290030E11
:100A9000EBAE2682EBAEE280E650EE26E650EE228A
:100AA000E650EE22E650EE22E290030EEBAE2684F4
:100AB000EBAEE280E650EE26E650EE22E650EE2265
:100AC000E650EE22E290030EEBAE2686EBAEE2801D
:100AD000E650EE26E650EE22E650EE22E650EE22FA
:100AE000E290030EEBAE2688EBAEE280E650EE26F7
:100AF000E650EE22E650EE22E650EE22E290E86A60
:100B000026B0321026B2361026B43A1026B63E1061
:100B100026B84210811AE86A26B0331026B2371080
:100B200026B43B1026B63F1026B84310831A0FC0D8
:100B3000E9FF10C0EAFF9EB40CD011C0E1FF12C063
:100B4000E2FF809A1100E1CF11F0E2CF12F0020E25
:100B5000E26E9E94030E81142310816E0F0E831497
:100B60002410836E1B841850E16EE6064EE2E60602
:100B70004CE2E6064AE2E60648E21BA6A18CE16EDC
:100B8000200F196206D0E66AE66AE66AE66A1B94F6
:100B90004DD0E280186EE16EE6CF25F025AE0ED086
:100BA0001B901B94A19C1BA6828C186A200E196EA8
:100BB0001C6A1D6A1E6AD59EF29438D0D8901E4ACF
:100BC0001D2AD8B01C2AE6CF23F0E6CF24F0030E6E
:100BD00081142310816E0F0E83142410836EE6504F
:100BE00025BC016E25AA0AD0E650276EBE6EE650DF
:100BF000286EBF6ED76AD66AD58E05D02AC0BEFFD2
:100C00002BC0BFFFD59EF29411D025AA0FD0040FA0
:100C1000E16EE6060BE2E60609E2E60607E2E60614
:100C200005E22588D76AD66AD58EF29411C0E1FF15
:100C300012C0E2FF025080A2015080A81BA8000E43
:100C4000BB6EBA50CF0BBBBE3009BA6E809A110092
:100C5000156ED838176EE9CF13F0EACF14F0A0BCA8
:100C6000A1AC0AD0A19C82BC07D0200E1924186226
:100C700001D002D09E96C96AF2BAF2A42CD0F294A6
:100C800025AA28D025B817D0BE502A6204D0BF505C
:100C90002B6201D01FD0F29EBE06D8A0BF06CE5058
:100CA000BE5CCF50BF5802E6F28E15D0CF6ACE6A36
:100CB0009E84F28E10D0BE50276204D0BF502862AE
:100CC00001D008D0CD90BD6ABE4ABF2A0B0EBD6EC2
:100CD000CD8001D0D59E13C0E9FF14C0EAFF1738BC
:100CE000D86E153A153810000E9E47EC0CF0420EE7
:100CF000F66E0E0EF76E000EF86E7CEC0CF0A3ECA8
:100D00000BF0446A5AD0085013E0B4EC0BF0A3EC9B
:100D10000BF00850F8E1E86AA6EC0CF0E86AA6ECE3
:100D20000CF0E86AA6EC0CF0A3EC0BF00850EBE139
:100D3000B4EC0BF0A3EC0BF00850FAE00850A3EF72
:100D400006F0ABEF06F0020AD8B4AAEF06F0020AEA
:100D5000AFEF06F0020ADDEF06F0B7EF06F0010A8A
:100D6000D8B4B6EF06F0010ABCEF06F0010AFF00A6
:100D7000DDEF06F0C4EF06F0400AD8B4C3EF06F08A
:100D8000400ACEEF06F0400A4406D8A8DDEF06F090
:100D9000020E446EDDEF06F0D6EF06F0200AD8B45E
:100DA000D5EF06F0200ADDEF06F0200A442A030EF4
:100DB0004418D8B4446ADDEF06F00E82000E4DEC04
:100DC0000CF04450E6EF06F0EEEF06F0000AD8B45F
:100DD000EDEF06F0000AFAEF06F0000A520EF66E8A
:100DE0000E0EF76E000EF86E7CEC0CF020EF07F0A4
:100DF00002EF07F0010AD8B401EF07F0010A0EEF85
:100E000007F0010A660EF66E0E0EF76E000EF86E13
:100E10007CEC0CF020EF07F016EF07F0020AD8B4D4
:100E200015EF07F0020A20EF07F0020A7A0EF66EBD
:100E30000E0EF76E000EF86E7CEC0CF020EF07F053
:100E400062D74D656E75205072696E636970616C12
:100E500000005E76204465706C6163656D656E743C
:100E60007320202000005E76204465636F757065F6
:100E7000206669636869657200005E762043686178
:100E80006E6765207461626C652020200000ACEC08
:100E90000CF0F6EC0BF020EC0EF0B4EC0BF0A3EC45
:100EA0000BF008B221D733EC0EF000017A510308A1
:100EB000D8A44DEF07F00E82000E4DEC0CF0780E2A
:100EC000F66E180EF76E000EF86E7CEC0CF00E82CB
:100ED00033EC0EF0B4EC0BF0A3EC0BF01BB09EA0C7
:100EE0000CD00E92000E4DEC0CF0820EF66E180E29
:100EF000F76E000EF86E7CEC0CF09E9033EC0EF06A
:100F0000040108BF9BEF0BF096EC14F033EC0EF0ED
:100F100000017B518EEF07F096EF07F0420AD8B43C
:100F200095EF07F0420AD8EF07F0420A420EBB6F76
:100F3000BC697C671AD01B901B94A19C828C200EEC
:100F4000196E186A020EEA6EE96AEE6AEE6AEE6AD5
:100F5000EE6A1C6A1D6A1E6A1B96256AD59E2AC007
:100F6000BEFF2BC0BFFF93EF0BF07CAF03D01B8005
:100F700093EF0BF07CA103D01B8693EF0BF07CA3C7
:100F800012D0828C1B96829C030E9DEC0BF07D513F
:100F90009DEC0BF07E519DEC0BF07F519DEC0BF026
:100FA000A18C93EF0BF0BC6B93EF0BF0E0EF07F02D
:100FB000440AD8B4DFEF07F0440A96EF08F0440A79
:100FC000440EBB6F1BA6C0D0BC691950186201D07B
:100FD000BBD000EE7CF0030EE26E19C0E1FFEF50D3
:100FE000E00BE66E0C6E0CBE9AD02E50EFB03018AF
:100FF000EFB23418EFB43818EFB63C18EFB8401819
:10100000E66E2F50EFB03118EFB23518EFB4391843
:10101000EFB63D18EEB84118E66EE29019C0E1FF58
:10102000EE50226E2204E66EEE50216ED8A021040E
:10103000E66EEE50206ED8A02004E66EEE501F6ED5
:10104000D8A01F04E66EBC6BD8A07ED0040EE126AB
:10105000EECFE6FFEECFE6FFEECFE6FFEECFE6FF08
:10106000EECFE6FFEECFE6FFEECFE6FFEECFE6FFF8
:10107000EECFE6FFEECFE6FFEECFE6FFEECFE6FFE8
:10108000EECFE6FFEECFE6FFEECFE6FFEECFE6FFD8
:10109000EECFE6FFEECFE6FFEECFE6FFEECFE6FFC8
:1010A000010EDA6E1950080FD96EE16E050E006E52
:1010B000E2902250E65CDE6E2150E658DE6E205053
:1010C000E658DE6E1F50E658DE6E040ED95EE15E15
:1010D000E2802250DE5CE66E2150DE58E66E205043
:1010E000DE58E66E1F50DE58E66E002EE1D719502E
:1010F000030FE16E0CBCEE502D642D50E66E0CAA71
:101100000ED0EECFE6FFEECFE7FFE290E106EECFA6
:10111000E6FFEECFE6FFEECFE6FFEECFE6FF200ED6
:101120001926010EBC6F10D09EEF08F0490AD8B402
:101130009DEF08F0490AC2EF08F0490A490EBB6F5B
:10114000BC6919501862BC6B1850195CE83AE84247
:10115000E806070BBD6F1EC0BEF01DC0BFF01CC06F
:10116000C0F01BC0C1F080401F0B84B6E88AC26F7C
:1011700001C0C3F002C0C4F008C0C5F093EF0BF08B
:10118000CAEF08F0560AD8B4C9EF08F0560AE1EFE2
:1011900008F0560A640EF66E180EF76E000EF86E22
:1011A00000EEBBF0560EEE6EA69CA68E0900F55022
:1011B000D8B493EF0BF0EE6EF9D793EF0BF0E9EFA5
:1011C00008F04F0AD8B4E8EF08F04F0A05EF09F02D
:1011D0004F0AA69EA69C2950200FA96EA6807C517E
:1011E00003E1A8B01B9A03D07C2D01D01B8A4F0EBF
:1011F000BB6F1BBABC81A8B0BC8380B4BC8580B671
:10120000BC8793EF0BF00DEF09F04D0AD8B40CEF4B
:1012100009F04D0A1FEF09F04D0A7C51D8B41B9C10
:10122000D8B484907C05D8B41B8CD8B484804D0E7F
:10123000BB6F1BBCBC8193EF0BF027EF09F0500A8A
:10124000D8B426EF09F0500A43EF09F0500A7C5158
:1012500002E11B9804D07C2D06D080A81B887D510C
:101260002D642D50016E500EBB6F1BB8BC8180A247
:10127000BD8180A8BD8301C0BEF002C0BFF093EF66
:101280000BF04BEF09F0530AD8B44AEF09F0530AB8
:101290004FEF09F0530A93EF0BF057EF09F0540AA0
:1012A000D8B456EF09F0540AF4EF09F0540A540E7A
:1012B000BB6F7C51BC6F08E1A69EA69CA96AA68064
:1012C000A8CFBDF093EF0BF07C071EE1A96A7DC0AB
:1012D000A8FF10EC0EF0A69EA69CA680A850BC69A4
:1012E0007D63BC6B7D6393EF0BF0A6DB0EAE93EFDB
:1012F0000BF00E920E0E4DEC0CF0070E006E29C096
:10130000A9FF03DB93EF0BF07C0702E193EF0BF0F7
:101310007C0714E100EEBDF07D51030BEE6E400D35
:10132000F328A96EA69EA69C210E006EA680A8CFCB
:10133000EEFFA92A002EFAD793EF0BF07C071BE1F2
:10134000BC6B00EE7DF0EE50030B400DF328A96E50
:10135000210E006EEFCFA8FF10EC0EF0A69EA69C0B
:10136000A680A850EE6293EF0BF0A92A002EF2D7C8
:10137000BC6993EF0BF07C0715E100EEBDF07D51E9
:10138000030BEE6E400DF328210FA96EA69EA69CBE
:101390001E0E006EA680A8CFEEFFA92A002EFAD757
:1013A00093EF0BF07C071CE1BC6B00EE7DF0EE5080
:1013B000030B400DF328210FA96E1E0E006EEFCF18
:1013C000A8FF10EC0EF0A69EA69CA680A850EE6288
:1013D00093EF0BF0A92A002EF2D7BC6993EF0BF024
:1013E00093EF0BF0FCEF09F04C0AD8B4FBEF09F0D7
:1013F0004C0A3CEF0AF04C0A4C0EBB6F0E927C512B
:101400002DE00E827C072AE07C0704E10E9EBC6B77
:1014100093EF0BF07C0713E10E8E010EBC6F0E9262
:101420000C0E4DEC0CF0540E7ADA3A0E78DA070E08
:10143000006E29C0A9FF69DAC2D993EF0BF07C07CF
:1014400006E1000E0EBE010EBC6F93EF0BF01FDA2B
:10145000000E0EBE010EBC6F93EF0BF07D511DDA36
:101460007E51006E00EE7FF0EE5059DA002EFCD770
:1014700093EF0BF044EF0AF0590AD8B443EF0AF0A7
:10148000590A71EF0AF0590A590EBB6F7C5104E1F9
:1014900082EC0DF093EF0BF07C0704E187EC0DF08C
:1014A00093EF0BF07C0709E17D51B7EC0DF0C4CF51
:1014B000BCF0C3CFBDF093EF0BF07C0705E17D518D
:1014C0008CEC0DF093EF0BF07C0707E17D517EC0B3
:1014D000C4FF7FC0C3FF9AEC0DF093EF0BF079EFE0
:1014E0000AF05A0AD8B478EF0AF05A0A86EF0AF0DE
:1014F0005A0A550E7C19D8A493EF0BF0AA0E7D1949
:10150000D8B4FF0093EF0BF08EEF0AF0460AD8B480
:101510008DEF0AF0460AB0EF0AF0460A828C460EBA
:10152000BB6F829C9F0E9DEC0BF0000E9DEC0BF0B0
:10153000BC6F000E9DEC0BF0BD6F000E9DEC0BF030
:10154000BE6F828C0000829C050E9DEC0BF0000E9D
:101550009DEC0BF0BF6F828C93EF0BF0B8EF0AF0AD
:10156000450AD8B4B7EF0AF0450A1CEF0BF0450A5C
:10157000828C450EBB6F829C030E9DEC0BF07C5160
:101580009DEC0BF0000E9DEC0BF0000E9DEC0BF0B3
:101590000C6A006A000E9DEC0BF0E83E09D0002EAC
:1015A000F9D70C2EF6D7010EBC6F828C93EF0BF09F
:1015B000828C0000829C060E9DEC0BF0828C000059
:1015C000829CD80E9DEC0BF07C519DEC0BF0000E34
:1015D0009DEC0BF0000E9DEC0BF0828C0000829CC9
:1015E000050E9DEC0BF0000E9DEC0BF0E8B0FBD768
:1015F000828C0000829C030E9DEC0BF07C519DECD4
:101600000BF0000E9DEC0BF0000E9DEC0BF00C6A45
:10161000006A000E9DEC0BF0E83E08D0002EF9D7D2
:101620000C2EF6D7BC69828C93EF0BF0BC6B828CCE
:1016300093EF0BF024EF0BF0520AD8B423EF0BF02A
:10164000520A47EF0BF0520A828C0000829C030E74
:101650009DEC0BF07C51BC6F9DEC0BF07D51BD6F90
:101660009DEC0BF07E51BE6F9DEC0BF0520EBB6FEC
:1016700000EEBFF0200E0C6E000E9DEC0BF0EE6E37
:101680000C2EFAD7828C93EF0BF04FEF0BF0570A2A
:10169000D8B44EEF0BF0570A8FEF0BF0570A828C3D
:1016A0000000829C060E9DEC0BF0828C0000829C58
:1016B000020E9DEC0BF000EE7CF0230E0C6EEE5053
:1016C0009DEC0BF00C2EFBD7828C0000829C050E4B
:1016D0009DEC0BF0000E9DEC0BF0E8B0FBD7828C7C
:1016E000570EBB6F829C030E9DEC0BF07C519DEC62
:1016F0000BF07D519DEC0BF07E519DEC0BF000EE5C
:101700007FF0200E0C6E000E9DEC0BF0EE18D8A4AE
:1017100003D00C2EF8D7BC69828C93EF0BF0000E2F
:10172000BB6F93EF0BF033EC0EF004010CBF93EFA3
:101730000BF0B2EC14F068EF07F09E96C96E9EA60F
:10174000FED7C95012000F0E9512828094900F0E92
:101750008314948082849494086E8338F00B08126A
:101760009484F00E95161200C280C282C2B2FED7D7
:10177000C290C336C434C336E8340C6E055CD8B8A6
:10178000E81C030806E20CC005F0C4502D642D507F
:10179000026E80B81B9880B802D004B81B880EAEC9
:1017A0001200120E80141BB8E880045E046ED8A4E8
:1017B0001200025080A20150035E036ED8A40E8274
:1017C0000E0E6BD84D0E80A2410EA9D83A0EA7D8A6
:1017D000025080A20150640DF4CF09F0F3BE092A33
:1017E000095062D8250E1BA8230E99D0E86AAED8FE
:1017F0000E90030E9CD84E0EA9D8030E98D84E0E0C
:10180000A5D8030E94D84E0EA1D8020E90D84E0E35
:101810009DD8280E84D8C10E99D80C0E80D8060EFB
:101820007ED8010E7CD8280E91D8640EF66E180E64
:10183000F76E000EF86E60D8200E71D8540E6FD877
:101840003A0E6DD8070E006E29C0A9FF5ED80E8231
:10185000000E23D8700EF66E180EF76E000EF86E9E
:101860004BD8120049504C35582076302E3131007B
:101870004F4B3D4D656E75004D4F444520555342CD
:101880000000414C45525420544D523100000E90FE
:10189000010E45D80E801A0E59D00E900EB2400F90
:1018A00080093DD80E801200096E093809240F0BFB
:1018B000D8B2160F070009B8150F09BA300F09BCC6
:1018C000600F09BE200F07000A6EE86AE83609BEFD
:1018D000E82A07E1200E23D80A380F0BD8B4F00EFF
:1018E00004D0300F1CD80A380F0B300F18D80A500C
:1018F0000F0B300F14D812000E80A69CA68E090084
:10190000F550D8B412000BD8F7D70E80A69CA69E2F
:10191000A680A85004D8A92A002EFAD712000D6E6E
:101920000D3805D80D5003D8010E10D8120084923E
:101930000EB084828484F00983160F0B831200009A
:101940000000000000000000849412000B6A0B2EBF
:10195000FED7E82EFBD71200F26AF16AF06A9D6AA0
:10196000A06A9F6AA26AD08E806A1F0E926E816AF8
:10197000010E936EF19E826A828C050E946E828CAB
:10198000836A000E956E846A080E966E000EC76E0E
:10199000300EC66EC950C36AC46A000EC26E0E0E07
:1019A000C16E3E0EC06E000ECD6ECF6ACE6A0B0EBB
:1019B000BD6E880EB16EB36AB26A030ECA6ECC6A8F
:1019C000CB680F0EBA6EBC6ABB6A070EB46EB56AFE
:1019D000056A026A016A036A046A1B6A0E6A0E8E4D
:1019E000186A200E196E1C6A1D6A1E6A20D800EE45
:1019F0007BF010EEBBF00001010E006F00514008BB
:101A0000D8A009EF0DF0EE6AE66A0001002BFEEFA8
:101A10000CF09E949D849F84F294F28AF194A19C90
:101A2000A08CA29CF28CF28ECA84CD801200A69E5D
:101A3000A69CA96AA680A850030B400DF328296E26
:101A4000120FA96E00EE2EF0160E006EEE6A002E3A
:101A5000FDD7800E39D8400E37D8200E35D8100E5D
:101A600033D8080E31D8040E2FD8800E3CD8400E43
:101A70003AD8200E38D8100E36D800EE2AF0040ED0
:101A8000006EA680A8CFEEFFA92A002EFAD7A68066
:101A90001B8AA8B01B9A2EC023F02FC024F0030E7F
:101AA00081142310816E0F0E83142410836E2AC0BC
:101AB000BEFF2BC0BFFFD56A2C28E8A6D58C070B2C
:101AC000D512D76AD66A12000C6EA680A80609E362
:101AD000A846A8BE2E12A89EA844300FE96E0C504E
:101AE000EF12A92A12000C6EA680A80609E3A846E8
:101AF000A8BE2F12A88EA844300FE96E0C50EF122A
:101B0000A92A1200819C8198818E010E50D0819C5F
:101B10008198819E010E4BD00C6E060E066E819C44
:101B20000CB0818C818843D8819841D80C32062E24
:101B3000F6D71200F1DFD890C336C436080E066E11
:101B4000819CC3B0818C818832D8819830D8C332CF
:101B5000062EF6D7080E066E819CC4B0818C818853
:101B600026D8819824D8C432062EF6D71200D4DFA6
:101B7000C36A090E066E81881AD8819818D8938C8A
:101B8000C34281BCC38E062EF6D7C46A060E066E0B
:101B900081880DD881980BD8C44281BCC48A062E96
:101BA000F7D7818804D88198939C819C00D0060E39
:101BB00000000B6E0B2EFED71200A69CA68EA684EC
:101BC000A68804EC0EF0A6941200A69CA68E400EE9
:101BD000066E0900F5CFEEFF062EFBD71200C00EF1
:101BE000F616DDEC0DF0A6840A00020E066E200E3D
:101BF000076EEECFF5FF0F00072EFBD704EC0EF0BB
:101C0000062EF5D7A6941200F29E550EA76EAA0EC8
:101C1000A76EA682F28E1200A69CA69EA680120037
:101C2000A69CA69EA684F29EF29C550EA76EAA0EB6
:101C3000A76EA682F28EF28CA6B2FED7A6941200F0
:101C4000696A686A140E6F6E080E6D6E00016D6B26
:101C5000706B7A6B010E6E6F6F6FFF0E716F6DBAE6
:101C60002FEF0EF0120037EF0EF03AEF0EF068A2F1
:101C70003FEF0EF06A6AE7EF0EF042EF0EF068AC4D
:101C800047EF0EF0689CE7EF0EF04AEF0EF068A801
:101C900050EF0EF068986D82E7EF0EF053EF0EF004
:101CA00068A459EF0EF068946D92E7EF0EF05CEFC8
:101CB0000EF068AA61EF0EF0689AE7EF0EF064EF9D
:101CC0000EF068A098EF0EF000016D6B68966896B4
:101CD00068966896706A716A726A736A746A756ADD
:101CE000766A776A786A796A7A6A7B6A7C6A7D6AD8
:101CF0007E6A7F6A0401400E016F800E026F040E3F
:101D0000036F880E006FC00E066F040E076F080E7B
:101D1000046F6E6A686A160E706EFF0E6B6E0001BD
:101D2000010E7A6F010E6E6FE7EF0EF09BEF0EF073
:101D300068A6E7EF0EF0040EEA6E6C507C0BE96EBD
:101D40000001EE50606FEE50616FEE50626FEE502A
:101D5000636F6C50796F68966C6B60513C0BB3EF9E
:101D60000EF0BBEF0EF0340AD8B4BAEF0EF0340A1E
:101D7000C1EF0EF0340AE8EC0EF0DBEF0EF0C9EF25
:101D80000EF0240AD8B4C8EF0EF0240ACFEF0EF0FC
:101D9000240AC8EC13F0DBEF0EF0D7EF0EF0040AC4
:101DA000D8B4D6EF0EF0040ADBEF0EF0040A23ECF1
:101DB00014F0DBEF0EF000016CA1E5EF0EF0040172
:101DC000400E016F840E046F006FE7EF0EF01200FB
:101DD00000016351EA6E6251E96EEE50646FEE509D
:101DE000656FEE50666FEE50676FEE50686FEE50A5
:101DF000696FEE506A6FEE506B6F0401400E016F19
:101E0000080E046F000164BF18EF0FF06A5100085C
:101E1000D8B40DEF0FF012EF0FF06B510008D8B4EB
:101E200015EF0FF0C80E16EF0FF0880E19EF0FF038
:101E3000880E0401006F6D980001FF0E716F6451F0
:101E4000600B25EF0FF02DEF0FF0000AD8B42CEF48
:101E50000FF0000A33EF0FF0000A4FEC0FF04EEFD7
:101E60000FF03BEF0FF0200AD8B43AEF0FF0200A42
:101E700041EF0FF0200A39EC13F04EEF0FF049EF6D
:101E80000FF0400AD8B448EF0FF0400A4DEF0FF0C2
:101E9000400AC6EC13F04EEF0FF06C811200655152
:101EA00054EF0FF05CEF0FF0000AD8B45BEF0FF0C7
:101EB000000A39EF10F0000A64511F0B62EF0FF0B7
:101EC0006AEF0FF0000AD8B469EF0FF0000A7CEF58
:101ED0000FF0000A04010751EA6E0651E96E000195
:101EE0006E51EE6EEF6A0401020E056FC80E046FAC
:101EF00035EF10F084EF0FF0010AD8B483EF0FF044
:101F0000010AB7EF0FF0010A7A5189EF0FF091EF54
:101F10000FF0020AD8B490EF0FF0020A96EF0FF01C
:101F2000020A6C81B3EF0FF09EEF0FF0030AD8B4F2
:101F30009DEF0FF0030AB3EF0FF0030A010E685D87
:101F4000D8B0B0EF0FF004010751EA6E0651E96E08
:101F5000EE6AEF6A020E056FC80E046FB1EF0FF064
:101F60006C81B3EF0FF035EF10F0BFEF0FF0020A06
:101F7000D8B4BEEF0FF0020A34EF10F0020A7A5123
:101F8000C4EF0FF0CCEF0FF0020AD8B4CBEF0FF094
:101F9000020AF0EF0FF0020A68510F0BD8A4EBEF22
:101FA0000FF004010751EA6E0651E96E000168AFB7
:101FB000DEEF0FF004010451E0EF0FF004010051D7
:101FC000040BEF6EEF42EF42EC6A020E056FC80E93
:101FD000046FECEF0FF06C8132EF10F0F8EF0FF0C0
:101FE000030AD8B4F7EF0FF0030A31EF10F0030A39
:101FF00004010751EA6E0651E96E0F0EE26E700E93
:10200000E16E040EDA6E000168518F0BD96ED9466D
:10201000D946D946000ED926D8A010EF10F0DA2AFA
:1020200068510F0B68AF1BEF10F0E3B21BEF10F01D
:102030006C812FEF10F068BF24EF10F0E3B424EFB1
:1020400010F06C812FEF10F0DF50040BEF6EEF42B9
:10205000EF42EC6A0401020E056FC80E046F32EF06
:1020600010F06C8135EF10F06C8138EF13F041EF18
:1020700010F0010AD8B440EF10F0010A43EF10F05D
:10208000010A4BEF10F0030AD8B44AEF10F0030A2C
:10209000F9EF10F0030A64511F0B51EF10F059EFE4
:1020A00010F0000AD8B458EF10F0000A7AEF10F0E0
:1020B000000A66515EEF10F066EF10F0010AD8B426
:1020C00065EF10F0010A75EF10F0010A6551010883
:1020D000D8A46EEF10F06E936FEF10F06E830401D2
:1020E000056BC80E046F76EF10F06C81F5EF10F001
:1020F00082EF10F0020AD8B481EF10F0020AF4EF78
:1021000010F0020A7A5187EF10F08FEF10F0020AF8
:10211000D8B48EEF10F0020A9FEF10F0020A685157
:102120000F0BD8A49AEF10F00401056BC80E046FD2
:102130009BEF10F06C81F2EF10F0A7EF10F0030AA4
:10214000D8B4A6EF10F0030AF1EF10F0030A0F0E57
:10215000EA6E700EE96E040EE26E000EE16E6851DA
:102160000F0BD8B4E8EF10F0E926D8A0B9EF10F0C3
:10217000EA2A6847684768457C0BE126D8A0C2EF89
:1021800010F0E22A68A3D7EF10F0EFA2D4EF10F01E
:1021900065510108D8A4D0EF10F0E76AD2EF10F033
:1021A000840EE76ED5EF10F06C81E8EF10F0EFA42D
:1021B000E7EF10F065510108D8A4E3EF10F0880EA6
:1021C000E76EE5EF10F0840EE76EE8EF10F06C813B
:1021D0006CB1EFEF10F00401056BC80E046FF2EF65
:1021E00010F06C81F5EF10F06C8138EF13F001EF17
:1021F00011F0050AD8B400EF11F0050A13EF11F041
:10220000050A66AF07EF11F06C810FEF11F0050EB4
:10221000716F6651726F0401056BC80E046F38EF61
:1022200013F01BEF11F0060AD8B41AEF11F0060AEA
:1022300056EF12F0060A716F675121EF11F029EF86
:1022400011F0010AD8B428EF11F0010A44EF11F09F
:10225000010A000E736F000E746F000E756FCFECE5
:1022600014F0766F6B510008D8A43EEF11F0765150
:102270006A5DD8B03EEF11F06A51766F69EC14F0E8
:1022800052EF12F04CEF11F0020AD8B44BEF11F0FC
:10229000020A84EF11F0020A665151EF11F059EF72
:1022A00011F0000AD8B458EF11F0000A61EF11F0F4
:1022B000000A120E736F000E746F000E756F62EFDE
:1022C00011F06C816CB180EF11F0020E7327000EDB
:1022D00074237523CFEC14F0766F020E735F000E3B
:1022E000745B755B6B510008D8A47EEF11F07651DA
:1022F0006A5DD8B07EEF11F06A51766F69EC14F028
:1023000052EF12F08CEF11F0030AD8B48BEF11F0FA
:10231000030ADEEF11F0030A665191EF11F099EF15
:1023200011F0000AD8B498EF11F0000AA3EF11F0F1
:10233000000A5D0E736F000E746F000E756FC6EFAE
:1023400011F0ABEF11F0010AD8B4AAEF11F0010AB5
:10235000B5EF11F0010A610E736F000E746F000E7D
:10236000756FC6EF11F0BDEF11F0020AD8B4BCEFE3
:1023700011F0020AC5EF11F0020A750E736F000E1C
:10238000746F000E756FC6EF11F06C816CB1DAEFEF
:1023900011F0CFEC14F0766F6B510008D8A4D8EF91
:1023A00011F076516A5DD8B0D8EF11F06A51766FAE
:1023B00069EC14F052EF12F0E6EF11F0210AD8B4F4
:1023C000E5EF11F0210A14EF12F0210A6651EBEF4C
:1023D00011F0F3EF11F0000AD8B4F2EF11F0000A97
:1023E000FBEF11F0000A240E736F000E746F000EE5
:1023F000756FFCEF11F06C816CB110EF12F0CFEC47
:1024000014F0766F6B510008D8A40EEF12F07651DD
:102410006A5DD8B00EEF12F06A51766F69EC14F075
:1024200052EF12F01CEF12F0220AD8B41BEF12F098
:10243000220A51EF12F0220A665121EF12F029EF21
:1024400012F0000AD8B428EF12F0000A2BEF12F0B5
:10245000000A33EF12F0010AD8B432EF12F0010A89
:102460003DEF12F0010A220E766F3B0E736F000EE5
:10247000746F000E756F3EEF12F06C816CB14FEF10
:1024800012F06B510008D8A44DEF12F076516A5D3E
:10249000D8B04DEF12F06A51766F69EC14F052EF3C
:1024A00012F06C8138EF13F05EEF12F0080AD8B426
:1024B0005DEF12F0080A6FEF12F0080A04010751ED
:1024C000EA6E0651E96E00016D51EF6E0401010ED6
:1024D000056FC80E046F38EF13F077EF12F0090A9A
:1024E000D8B476EF12F0090ABDEF12F0090A66516E
:1024F0000108D8A0B8EF12F0716A726A736A746A40
:10250000756A766A776A786A796A7A6A7B6A7C6AB7
:102510007D6A7E6A7F6A66516D6F91EF12F099EF66
:1025200012F0000AD8B498EF12F0000A9DEF12F0F2
:10253000000A020E7A6FB2EF12F0030E7A6F0401F6
:10254000400E096F000E0A6F050E0B6F880E086FA4
:10255000400E0D6F400E0E6F050E0F6F480E0C6F84
:102560001E0E716E0401056BC80E046FB9EF12F0F8
:102570006C8138EF13F0C5EF12F00A0AD8B4C4EF3B
:1025800012F00A0AEBEF12F00A0A7A51CAEF12F0BF
:10259000D2EF12F0030AD8B4D1EF12F0030AE6EF3B
:1025A00012F0030A010E685DD8B0E3EF12F00401E7
:1025B0000751EA6E0651E96EEF6A010E056FC80E0B
:1025C000046FE4EF12F06C81E7EF12F06C8138EFEA
:1025D00013F0F3EF12F00B0AD8B4F2EF12F00B0A7B
:1025E00023EF13F00B0A7A51F8EF12F000EF13F01B
:1025F000030AD8B4FFEF12F0030A1EEF13F0030A28
:10260000010E685DD8B01BEF13F066510AEF13F0AE
:1026100012EF13F0000AD8B411EF13F0000A18EF0C
:1026200013F0000A0401056BC80E046F19EF13F0D4
:102630006C811CEF13F06C811FEF13F06C8138EF8D
:1026400013F02BEF13F0070AD8B42AEF13F0070AA0
:102650002DEF13F0070A35EF13F00C0AD8B434EF5E
:1026600013F00C0A35EF13F00C0A6C8138EF13F0FD
:10267000120065513EEF13F046EF13F0010AD8B493
:1026800045EF13F0010A63EF13F0010A00EE7BF04F
:1026900007C4E2FF06C4E1FF0001010E006F005114
:1026A0002408D8A05AEF13F0EECFE6FF0001002B6C
:1026B0004FEF13F00401240E056FC80E046FC5EF31
:1026C00013F06BEF13F0090AD8B46AEF13F0090A9C
:1026D00070EF13F0090A716FC5EF13F078EF13F084
:1026E000030AD8B477EF13F0030A89EF13F0030A53
:1026F00004010751EA6E0651E96E00016F51EF6E59
:102700000401010E056FC80E046FC5EF13F091EFC1
:1027100013F00B0AD8B490EF13F00B0A9BEF13F0F1
:102720000B0A66516F6F0401056BC80E046FC5EF8D
:1027300013F0A3EF13F0020AD8B4A2EF13F0020AC9
:10274000B4EF13F0020A04010751EA6E0651E96E74
:1027500000017051EF6E0401010E056FC80E046F89
:10276000C5EF13F0BCEF13F00A0AD8B4BBEF13F0B7
:102770000A0AC4EF13F00A0A6651706F0401056B70
:10278000C80E046FC5EF13F06C8112006C8112004B
:1027900000017951180BCFEF13F0D7EF13F0000AB7
:1027A000D8B4D6EF13F0000A0CEF14F0000A715100
:1027B000DCEF13F0E4EF13F0050AD8B4E3EF13F005
:1027C000050AFCEF13F0050A72516E6EEAEF13F082
:1027D000F2EF13F0000AD8B4F1EF13F0000AF6EFAD
:1027E00013F0000A010E7A6FF8EF13F0020E7A6F01
:1027F00008EF14F004EF14F0060AD8B403EF14F055
:10280000060A08EF14F0060A69EC14F008EF14F059
:1028100022EF14F014EF14F0080AD8B413EF14F0F8
:10282000080A18EF14F0080A22EF14F020EF14F051
:10283000100AD8B41FEF14F0100A22EF14F0100A97
:1028400022EF14F0120000017951180B2AEF14F056
:1028500032EF14F0000AD8B431EF14F0000A52EF4E
:1028600014F0000A715137EF14F03FEF14F0090A29
:10287000D8B43EEF14F0090A46EF14F0090AFF0E2F
:10288000716F04010351EA6E0251E96E0401400EBA
:10289000016F880E006F056BC80E046F68EF14F0AF
:1028A0005AEF14F0080AD8B459EF14F0080A5EEF92
:1028B00014F0080A68EF14F066EF14F0100AD8B4A8
:1028C00065EF14F0100A68EF14F0100A68EF14F0C6
:1028D00012000001400E765DD8B074EF14F0FF0EC8
:1028E000716F765175EF14F0400E765F786F0401CA
:1028F000056F0751EA6E0651E96E0001010E776F10
:102900007751785DD8A08FEF14F0CFEC14F0EE6E15
:10291000732B000E74237523772B80EF14F00401C2
:10292000400E0419400B8809046F120000EE7BF082
:102930000BC4E2FF0AC4E1FF0001010E006F005169
:102940002408D8A0A9EF14F0E6CFEEFF002B9FEFEC
:1029500014F00401240E096F0851400B400A880945
:10296000086F120000EEBBF00FC4E2FF0EC4E1FFDF
:102970000001010E006F00512408D8A0C6EF14F02A
:10298000EFCFE6FFEE6A002BBBEF14F00401240E3C
:0E2990000D6F0C51400B400A88090C6F1200AD
:02299E00000136
:1029A000B80E7325F66E290E7421F76E000E752190
:1029B000F86E0800F55012001201000200000040FD
:1029C000D804AA0011000102000109022900010136
:1029D0000080320904000002030000000921010107
:1029E00000012222000705810340000107050103C1
:1029F00040000106A0FF0901A1010903150026FFFF
:102A0000007508952481020904150026FF00750849
:102A100095249102C0040309041403410065007267
:102A2000006F004D006900630072006F00180349D9
:102A30000050004C00350058002000760030002E79
:052A400000310031002F
:020000040030CA
:0100000024DB
:010001000EF0
:010002003FBE
:010003001EDE
:0100050001F9
:010006008178
:010008000FE8
:01000900C036
:01000A000FE6
:01000B00E014
:01000C000FE4
:01000D0040B2
:0200000400F00A
:100000000150617363616C2020584459445847592A
:10001000470000C404C3030000C202C101960007E8
:02002000FF00DF
:10004000014D4D32303031202058445944584759E1
:1000500047000004840383028201810000580207E4
:02006000CC00D2
:0200800002007C
:0200C00003003B
:00000001FF
