:020000040000FA
:10000000C5EF06F00000000084EF09F000000000DA
:0C00100000000000000000008CEF09F070
:02002A000000D4
:04002C00696A686A2B
:10003000140E6F6E080E6D6E00016D6B706B7A6B37
:10004000010E6E6F6F6FFF0E716F6DBA25EF00F0CE
:1000500012002DEF00F030EF00F068A235EF00F055
:100060006A6ADDEF00F038EF00F068AC3DEF00F0B9
:10007000689CDDEF00F040EF00F068A846EF00F06C
:1000800068986D82DDEF00F049EF00F068A44FEF53
:1000900000F068946D92DDEF00F052EF00F068AA76
:1000A00057EF00F0689ADDEF00F05AEF00F068A01B
:1000B0008EEF00F000016D6B689668966896689602
:1000C000706A716A726A736A746A756A766A776A44
:1000D000786A796A7A6A7B6A7C6A7D6A7E6A7F6AF4
:1000E0000401400E016F800E026F040E036F880E34
:1000F000006FC00E066F040E076F080E046F6E6A65
:10010000686A160E706EFF0E6B6E0001010E7A6F3C
:10011000010E6E6FDDEF00F091EF00F068A6DDEFED
:1001200000F0040EEA6E6C507C0BE96E0001EE509C
:10013000606FEE50616FEE50626FEE50636F6C5007
:10014000796F68966C6B60513C0BA9EF00F0B1EFD2
:1001500000F0340AD8B4B0EF00F0340AB7EF00F082
:10016000340ADEEC00F0D1EF00F0BFEF00F0240A1B
:10017000D8B4BEEF00F0240AC5EF00F0240ABEECAC
:1001800005F0D1EF00F0CDEF00F0040AD8B4CCEFC9
:1001900000F0040AD1EF00F0040A19EC06F0D1EFE8
:1001A00000F000016CA1DBEF00F00401400E016FD4
:1001B000840E046F006FDDEF00F012000001635148
:1001C000EA6E6251E96EEE50646FEE50656FEE506C
:1001D000666FEE50676FEE50686FEE50696FEE50CD
:1001E0006A6FEE506B6F0401400E016F080E046FD2
:1001F000000164BF0EEF01F06A510008D8B403EFAC
:1002000001F008EF01F06B510008D8B40BEF01F0DA
:10021000C80E0CEF01F0880E0FEF01F0880E0401FC
:10022000006F6D980001FF0E716F6451600B1BEF42
:1002300001F023EF01F0000AD8B422EF01F0000A28
:1002400029EF01F0000A45EC01F044EF01F031EF35
:1002500001F0200AD8B430EF01F0200A37EF01F0A6
:10026000200A2FEC05F044EF01F03FEF01F0400AC7
:10027000D8B43EEF01F0400A43EF01F0400ABCEC75
:1002800005F044EF01F06C81120065514AEF01F076
:1002900052EF01F0000AD8B451EF01F0000A2FEF3D
:1002A00002F0000A64511F0B58EF01F060EF01F0FB
:1002B000000AD8B45FEF01F0000A72EF01F0000A03
:1002C00004010751EA6E0651E96E00016E51EE6EAF
:1002D000EF6A0401020E056FC80E046F2BEF02F0E7
:1002E0007AEF01F0010AD8B479EF01F0010AADEF1D
:1002F00001F0010A7A517FEF01F087EF01F0020A65
:10030000D8B486EF01F0020A8CEF01F0020A6C818A
:10031000A9EF01F094EF01F0030AD8B493EF01F0D4
:10032000030AA9EF01F0030A010E685DD8B0A6EF39
:1003300001F004010751EA6E0651E96EEE6AEF6AB8
:10034000020E056FC80E046FA7EF01F06C81A9EFD4
:1003500001F02BEF02F0B5EF01F0020AD8B4B4EFD0
:1003600001F0020A2AEF02F0020A7A51BAEF01F014
:10037000C2EF01F0020AD8B4C1EF01F0020AE6EFC1
:1003800001F0020A68510F0BD8A4E1EF01F004015B
:100390000751EA6E0651E96E000168AFD4EF01F033
:1003A00004010451D6EF01F004010051040BEF6E7B
:1003B000EF42EF42EC6A020E056FC80E046FE2EFE7
:1003C00001F06C8128EF02F0EEEF01F0030AD8B4DF
:1003D000EDEF01F0030A27EF02F0030A04010751D1
:1003E000EA6E0651E96E0F0EE26E700EE16E040EBB
:1003F000DA6E000168518F0BD96ED946D946D946BD
:10040000000ED926D8A006EF02F0DA2A68510F0BA9
:1004100068AF11EF02F0E3B211EF02F06C8125EF4B
:1004200002F068BF1AEF02F0E3B41AEF02F06C8139
:1004300025EF02F0DF50040BEF6EEF42EF42EC6A63
:100440000401020E056FC80E046F28EF02F06C81E4
:100450002BEF02F06C812EEF05F037EF02F0010A6E
:10046000D8B436EF02F0010A39EF02F0010A41EF89
:1004700002F0030AD8B440EF02F0030AEFEF02F0F3
:10048000030A64511F0B47EF02F04FEF02F0000A1E
:10049000D8B44EEF02F0000A70EF02F0000A665185
:1004A00054EF02F05CEF02F0010AD8B45BEF02F007
:1004B000010A6BEF02F0010A65510108D8A464EF4C
:1004C00002F06E9365EF02F06E830401056BC80EB7
:1004D000046F6CEF02F06C81EBEF02F078EF02F04A
:1004E000020AD8B477EF02F0020AEAEF02F0020A39
:1004F0007A517DEF02F085EF02F0020AD8B484EF62
:1005000002F0020A95EF02F0020A68510F0BD8A41C
:1005100090EF02F00401056BC80E046F91EF02F03A
:100520006C81E8EF02F09DEF02F0030AD8B49CEF73
:1005300002F0030AE7EF02F0030A0F0EEA6E700EF4
:10054000E96E040EE26E000EE16E68510F0BD8B436
:10055000DEEF02F0E926D8A0AFEF02F0EA2A684702
:10056000684768457C0BE126D8A0B8EF02F0E22A84
:1005700068A3CDEF02F0EFA2CAEF02F065510108C7
:10058000D8A4C6EF02F0E76AC8EF02F0840EE76E67
:10059000CBEF02F06C81DEEF02F0EFA4DDEF02F0B2
:1005A00065510108D8A4D9EF02F0880EE76EDBEFA1
:1005B00002F0840EE76EDEEF02F06C816CB1E5EFC5
:1005C00002F00401056BC80E046FE8EF02F06C81C5
:1005D000EBEF02F06C812EEF05F0F7EF02F0050A69
:1005E000D8B4F6EF02F0050A09EF03F0050A66AF8A
:1005F000FDEF02F06C8105EF03F0050E716F66519F
:10060000726F0401056BC80E046F2EEF05F011EF39
:1006100003F0060AD8B410EF03F0060A4CEF04F01A
:10062000060A716F675117EF03F01FEF03F0010A1D
:10063000D8B41EEF03F0010A3AEF03F0010A000EEE
:10064000736F000E746F000E756FC8EC08F0766F54
:100650006B510008D8A434EF03F076516A5DD8B02E
:1006600034EF03F06A51766F5FEC06F048EF04F068
:1006700042EF03F0020AD8B441EF03F0020A7AEF26
:1006800003F0020A665147EF03F04FEF03F0000A50
:10069000D8B44EEF03F0000A57EF03F0000A120E31
:1006A000736F000E746F000E756F58EF03F06C815E
:1006B0006CB176EF03F0020E7327000E74237523DE
:1006C000C8EC08F0766F020E735F000E745B755B0A
:1006D0006B510008D8A474EF03F076516A5DD8B06E
:1006E00074EF03F06A51766F5FEC06F048EF04F0A8
:1006F00082EF03F0030AD8B481EF03F0030AD4EFCA
:1007000003F0030A665187EF03F08FEF03F0000A4E
:10071000D8B48EEF03F0000A99EF03F0000A5D0EE3
:10072000736F000E746F000E756FBCEF03F0A1EFD6
:1007300003F0010AD8B4A0EF03F0010AABEF03F015
:10074000010A610E736F000E746F000E756FBCEFBF
:1007500003F0B3EF03F0020AD8B4B2EF03F0020AD9
:10076000BBEF03F0020A770E736F000E746F000E7A
:10077000756FBCEF03F06C816CB1D0EF03F0C8EC87
:1007800008F0766F6B510008D8A4CEEF03F07651D5
:100790006A5DD8B0CEEF03F06A51766F5FEC06F079
:1007A00048EF04F0DCEF03F0210AD8B4DBEF03F0EC
:1007B000210A0AEF04F0210A6651E1EF03F0E9EFA4
:1007C00003F0000AD8B4E8EF03F0000AF1EF03F0F9
:1007D000000A240E736F000E746F000E756FF2EF37
:1007E00003F06C816CB106EF04F0C8EC08F0766F92
:1007F0006B510008D8A404EF04F076516A5DD8B0BC
:1008000004EF04F06A51766F5FEC06F048EF04F0F5
:1008100012EF04F0220AD8B411EF04F0220A47EFD5
:1008200004F0220A665117EF04F01FEF04F0000AEB
:10083000D8B41EEF04F0000A21EF04F0000A29EFFB
:1008400004F0010AD8B428EF04F0010A33EF04F0F1
:10085000010A220E766F3B0E736F000E746F000E4E
:10086000756F34EF04F06C816CB145EF04F06B519F
:100870000008D8A443EF04F076516A5DD8B043EF86
:1008800004F06A51766F5FEC06F048EF04F06C817B
:100890002EEF05F054EF04F0080AD8B453EF04F03B
:1008A000080A65EF04F0080A04010751EA6E0651D0
:1008B000E96E00016D51EF6E0401010E056FC80E67
:1008C000046F2EEF05F06DEF04F0090AD8B46CEF59
:1008D00004F0090AB3EF04F0090A66510108D8A030
:1008E000AEEF04F0716A726A736A746A756A766A46
:1008F000776A786A796A7A6A7B6A7C6A7D6A7E6AD4
:100900007F6A66516D6F87EF04F08FEF04F0000A85
:10091000D8B48EEF04F0000A93EF04F0000A020E40
:100920007A6FA8EF04F0030E7A6F0401400E096F8E
:10093000000E0A6F050E0B6F880E086F400E0D6FCC
:10094000400E0E6F050E0F6F480E0C6F1E0E716E6F
:100950000401056BC80E046FAFEF04F06C812EEF3D
:1009600005F0BBEF04F00A0AD8B4BAEF04F00A0AA3
:10097000E1EF04F00A0A7A51C0EF04F0C8EF04F086
:10098000030AD8B4C7EF04F0030ADCEF04F0030A4B
:10099000010E685DD8B0D9EF04F004010751EA6E8A
:1009A0000651E96EEF6A010E056FC80E046FDAEFAB
:1009B00004F06C81DDEF04F06C812EEF05F0E9EFBF
:1009C00004F00B0AD8B4E8EF04F00B0A19EF05F0B5
:1009D0000B0A7A51EEEF04F0F6EF04F0030AD8B4F4
:1009E000F5EF04F0030A14EF05F0030A010E685D49
:1009F000D8B011EF05F0665100EF05F008EF05F0F3
:100A0000000AD8B407EF05F0000A0EEF05F0000A5F
:100A10000401056BC80E046F0FEF05F06C8112EF37
:100A200005F06C8115EF05F06C812EEF05F021EFDC
:100A300005F0070AD8B420EF05F0070A23EF05F008
:100A4000070A2BEF05F00C0AD8B42AEF05F00C0AC0
:100A50002BEF05F00C0A6C812EEF05F012006551AA
:100A600034EF05F03CEF05F0010AD8B43BEF05F098
:100A7000010A59EF05F0010A00EE7BF007C4E2FF1E
:100A800006C4E1FF0001010E026F02512408D8A044
:100A900050EF05F0EECFE6FF0001022B45EF05F029
:100AA0000401240E056FC80E046FBBEF05F061EF63
:100AB00005F0090AD8B460EF05F0090A66EF05F001
:100AC000090A716FBBEF05F06EEF05F0030AD8B4A9
:100AD0006DEF05F0030A7FEF05F0030A04010751EB
:100AE000EA6E0651E96E00016F51EF6E0401010ECE
:100AF000056FC80E046FBBEF05F087EF05F00B0A1A
:100B0000D8B486EF05F00B0A91EF05F00B0A665199
:100B10006F6F0401056BC80E046FBBEF05F099EF12
:100B200005F0020AD8B498EF05F0020AAAEF05F022
:100B3000020A04010751EA6E0651E96E0001705184
:100B4000EF6E0401010E056FC80E046FBBEF05F0D8
:100B5000B2EF05F00A0AD8B4B1EF05F00A0ABAEF0D
:100B600005F00A0A6651706F0401056BC80E046F28
:100B7000BBEF05F06C8112006C811200000179510D
:100B8000180BC5EF05F0CDEF05F0000AD8B4CCEF97
:100B900005F0000A02EF06F0000A7151D2EF05F0ED
:100BA000DAEF05F0050AD8B4D9EF05F0050AF2EF3F
:100BB00005F0050A72516E6EE0EF05F0E8EF05F002
:100BC000000AD8B4E7EF05F0000AECEF05F0000AE0
:100BD000010E7A6FEEEF05F0020E7A6FFEEF05F070
:100BE000FAEF05F0060AD8B4F9EF05F0060AFEEFB1
:100BF00005F0060A5FEC06F0FEEF05F018EF06F0D0
:100C00000AEF06F0080AD8B409EF06F0080A0EEF5A
:100C100006F0080A18EF06F016EF06F0100AD8B42E
:100C200015EF06F0100A18EF06F0100A18EF06F09C
:100C3000120000017951180B20EF06F028EF06F0A2
:100C4000000AD8B427EF06F0000A48EF06F0000AC1
:100C500071512DEF06F035EF06F0090AD8B434EFE4
:100C600006F0090A3CEF06F0090AFF0E716F040155
:100C70000351EA6E0251E96E0401400E016F880EC5
:100C8000006F056BC80E046F5EEF06F050EF06F0C4
:100C9000080AD8B44FEF06F0080A54EF06F0080A25
:100CA0005EEF06F05CEF06F0100AD8B45BEF06F0DA
:100CB000100A5EEF06F0100A5EEF06F01200000167
:100CC000400E765DD8B06AEF06F0FF0E716F765178
:100CD0006BEF06F0400E765F786F0401056F0751E9
:100CE000EA6E0651E96E0001010E776F7751785D6B
:100CF000D8A085EF06F0C8EC08F0EE6E732B000E5E
:100D000074237523772B76EF06F00401400E041947
:100D1000400B8809046F120000EE7BF00BC4E2FF69
:100D20000AC4E1FF0001010E026F02512408D8A09D
:100D30009FEF06F0E6CFEEFF022B95EF06F00401E1
:100D4000240E096F0851400B400A8809086F1200F1
:100D500000EEBBF00FC4E2FF0EC4E1FF0001010E84
:100D6000026F02512408D8A0BCEF06F0EFCFE6FFD7
:100D7000EE6A022BB1EF06F00401240E0D6F0C5148
:0A0D8000400B400A88090C6F1200B6
:060D8A000F0EC16E84A6ED
:100D900013D0A69CA68EF86A130EF76E010EF66E9F
:100DA0000900EF0EF518D8A407D0120ED014020ACD
:100DB000D8A480EF09F0D08840D9CED816EC00F046
:100DC00029EC00F000017A510308D8A4E0EF06F006
:100DD0000682000E05D9D60EF66E0F0EF76E000EC7
:100DE000F86E05D9068229EC00F0040108BFAAEFCD
:100DF00007F08CEC06F029EC00F000EE7FF000012B
:100E0000F86A7D51F76EBD6F7E51E00BF66EA96EEC
:100E1000BE6F7B510EEF07F016EF07F0560AD8B4FD
:100E200015EF07F0560A2DEF07F0560ABA0EF66EC8
:100E30000F0EF76E000EF86E00EEBBF0560EEE6E63
:100E4000A69CA68E0900F550D8B4A2EF07F0EE6E6E
:100E5000F9D7A2EF07F035EF07F05A0AD8B434EF0C
:100E600007F05A0A48EF07F05A0A550E7C19D8A421
:100E7000A2EF07F0AA0E7D19D8A4A2EF07F07EB169
:100E8000D0827EA1D092FF00A2EF07F050EF07F0D2
:100E9000520AD8B44FEF07F0520A5FEF07F0520A38
:100EA000520EBB6F00EEBFF07C51D8B446D97C2FF8
:100EB000A2EF07F0FAD8A2EF07F067EF07F0570AA2
:100EC000D8B466EF07F0570A89EF07F0570A570EB4
:100ED000BB6F7C51D8A404D03BD9BC6FA2EF07F004
:100EE000120EF76412D07C2F07D010EE08F0D6D87F
:100EF000010EBC6FA2EF07F07C2F07D010EE28F098
:100F0000CDD8DFD8BC6FC00EBE17A2EF07F091EFAF
:100F100007F04C0AD8B490EF07F04C0A9EEF07F0A8
:100F20004C0A4C0EBB6F06827D515AD87E51006E22
:100F3000EE5066D8002EFCD7A2EF07F0000EBB6F74
:100F4000A2EF07F029EC00F004010CBFA2EF07F0BC
:100F5000A8EC06F0F3EF06F0E86A69D80690030EF5
:100F600057D84E0E64D8030E53D84E0E60D8030ED9
:100F70004FD84E0E5CD8020E4BD84E0E58D8280EC5
:100F80003FD8C10E54D80C0E3BD8060E39D8010EEE
:100F900037D8280E4CD8BA0EF66E0F0EF76E000E2C
:100FA000F86E25D80682000E1BD8CC0EF66E0F0EFA
:100FB000F76E000EF86E1BD8120049504C355820C1
:100FC000426F6F74202076302E313000494E4954E4
:100FD0002055534200004D4F4445205553420000D8
:100FE000069006B2400F80090BD8068012000680DA
:100FF000A69CA68E0900F550D8B4120001D8F7D7E8
:10100000056E053805D8055003D8010E10D812001A
:10101000849206B084828484F00983160F0B8312B5
:101020000000000000000000000084941200046A28
:10103000042EFED7E82EFBD71200F26AF16AF06A9E
:101040009D6AA06A9F6AA26AD08E806A1F0E926E05
:10105000816A010E936EF19E826A828C050E946EF7
:10106000828C836A000E956E846A080E966E000E5E
:10107000C26E0E0EC16E00EE7BF010EEBBF00001F2
:10108000010E026F02514008D8A04DEF08F0EE6A41
:10109000E66A0001022B42EF08F01200200E006EFB
:1010A000EECFE6FF002EFCD71200E00EF614A69C51
:1010B000A68E200E006E0900F5CFEEFF002EFBD7A6
:1010C0001200C00EF616A69CA68E23D807A0010C0F
:1010D00000EE08F00A00C00EF616A68407A204D09F
:1010E000A68850D807A411D00A00020E006E200E68
:1010F000016EEECFF5FF0F00012EFBD7C2EC08F01A
:10110000002EF5D7A694C00EF61603D807A0010C42
:10111000000C00EE08F0076A400E006E0900F55062
:10112000EF18D8A40780F550EF14EF18D8A4078261
:10113000EE3C0784002EF2D71200A69CA69E200E3D
:10114000006EA680A8CFEEFFA92A002EFAD71200C3
:10115000A69CA69EA684200E006EA680EF50A8181E
:10116000D8B40AD0EFCFA8FF0DD8A6B2FED7A6807C
:10117000EF50A818D8A4000CEE50A92A002EEDD7E5
:10118000A694010C550EA76EAA0EA76EA682120099
:101190000001AA0E7325F66E110E7421F76E000E73
:1011A0007521F86E0800F5501200120100020000CF
:1011B0000040D804A9001000010200010902290022
:1011C000010100803209040000020300000009212F
:1011D00001010001222200070581034000010705EB
:1011E000010340000106A0FF0901A1010903150048
:1011F00026FF007508952481020904150026FF00CA
:10120000750895249102C00403090416033500589B
:10121000002D00500052004F004A0045004300548A
:10122000002203490050004C0035005800200042C5
:10123000006F006F0074002000760030002E003137
:031240000030007B
:020000040030CA
:0100000024DB
:010001000EF0
:010002003FBE
:010003001EDE
:0100050001F9
:010006008178
:010008000FE8
:01000900C036
:01000A000FE6
:01000B00E014
:01000C000FE4
:01000D0040B2
:00000001FF
