:020000040000FA
:100A0000B0EF0BF00000000096EF09F049504C35B4
:0C0A1000582076302E3133008EEF0AF0B3
:10130000B0EF0BF00000000096EF09F049504C35AB
:0C131000582076302E3133008EEF0AF0AA
:02132A000000C1
:04132C00808A9E9481
:1013300084A60AD01FA0F0D01FA474D01F941FBA97
:1013400007D080500C0B04E01F901F821F98E4D040
:10135000E9CF13F0EACF14F0E1CF15F0E2CF16F0A9
:10136000010EEA6E020EE26E1C50080FE16EE96E8D
:10137000C00E2A6E030EEBAE2A82EBAEE280E65080
:10138000EE26E650EE22E650EE22E650EE22E29005
:10139000030EEBAE2A84EBAEE280E650EE26E6507A
:1013A000EE22E650EE22E650EE22E290030EEBAE85
:1013B0002A86EBAEE280E650EE26E650EE22E650BC
:1013C000EE22E650EE22E290030EEBAE2A88EBAE60
:1013D000E280E650EE26E650EE22E650EE22E6509F
:1013E000EE22E290030EEBAE2A8AEBAEE280E650EC
:1013F000EE26E650EE22E650EE22E650EE22E29095
:10140000070EEA6E2AC0E9FFEE50811AEE50831AE9
:1014100013C0E9FF14C0EAFF15C0E1FF16C0E2FFE8
:10142000809A1100E1CF15F0E2CF16F0020EE26EC5
:101430009E94030E81142710816E0F0E83142810C2
:10144000836E1F841C50E16EE60650E2E6064EE213
:10145000E6064CE2E6064AE21FA6A18C1FB21F90E8
:10146000E16E200F1D6206D0E66AE66AE66AE66A69
:101470001F944ED0E2801C6EE16EE6CF29F029AEBB
:101480000ED01F901F94A19C1FA6828C1C6A200E58
:101490001D6E206A216A226AD59EF29439D0D890B6
:1014A000224A212AD8B0202AE6CF27F0E6CF28F01A
:1014B000030E81142710816E0F0E83142810836E83
:1014C000E65029BC076E29AA0AD0E6502B6EBE6EE4
:1014D000E6502C6EBF6ED76AD66AD58E05D02EC068
:1014E000BEFF2FC0BFFFD59EF29412D029AA10D004
:1014F000040FE16EE6060CE2E6060AE2E60608E202
:10150000E60606E229882986D76AD66AD58EF2943D
:1015100015C0E1FF16C0E2FF809A1100196ED8389D
:101520001B6EE9CF17F0EACF18F0A0BCA1AC0AD02F
:10153000A19C82BC07D0200E1D241C6201D002D0C9
:101540009E96C96AF2BAF2A42FD0F2941FB029AACB
:101550002AD029B817D0BE502E6204D0BF502F62B7
:1015600001D021D0F29EBE06D8A0BF06CE50BE5CF0
:10157000CF50BF5802E6F28E17D0CF6ACE6A9E8453
:10158000F28E12D0BE502B6204D0BF502C6201D01C
:1015900008D0CD90BD6ABE4ABF2A0B0EBD6ECD806D
:1015A00003D01FB21F90D59E17C0E9FF18C0EAFFF5
:1015B0001B38D86E193A19381000129EF3EC10F04F
:1015C000140EF66E170EF76E000EF86E28EC11F082
:1015D00042EC10F0326A5AD00D5013E053EC10F088
:1015E00042EC10F00D50F8E1E86A52EC11F0E86AB4
:1015F00052EC11F0E86A52EC11F042EC10F00D5090
:10160000EBE153EC10F042EC10F00D50FAE00D500D
:101610000CEF0BF014EF0BF0020AD8B413EF0BF041
:10162000020A18EF0BF0020A46EF0BF020EF0BF066
:10163000010AD8B41FEF0BF0010A25EF0BF0010AE5
:10164000FF0046EF0BF02DEF0BF0400AD8B42CEF63
:101650000BF0400A37EF0BF0400A3206D8A846EFED
:101660000BF0020E326E46EF0BF03FEF0BF0200A4C
:10167000D8B43EEF0BF0200A46EF0BF0200A322AD6
:10168000030E3218D8B4326A46EF0BF01282000E05
:10169000F9EC10F032504FEF0BF057EF0BF0000A5F
:1016A000D8B456EF0BF0000A63EF0BF0000A240EDB
:1016B000F66E170EF76E000EF86E28EC11F089EF3B
:1016C0000BF06BEF0BF0010AD8B46AEF0BF0010AD4
:1016D00077EF0BF0010A380EF66E170EF76E000E5C
:1016E000F86E28EC11F089EF0BF07FEF0BF0020A97
:1016F000D8B47EEF0BF0020A89EF0BF0020A4C0E11
:10170000F66E170EF76E000EF86E28EC11F089EFEA
:101710000BF062D74D656E75205072696E6369700B
:10172000616C00005E76204465706C6163656D6578
:101730006E747320202000005E76204465636F7510
:101740007065206669636869657200005E76204393
:1017500068616E6765207461626C652020200000FE
:1017600058EC11F0A2EC10F0E3EC12F053EC10F096
:1017700042EC10F00DB221D7F6EC12F000017A51D4
:101780000308D8A4B6EF0BF01282000EF9EC10F0AB
:10179000D00EF66E210EF76E000EF86E28EC11F0EA
:1017A000F6EC12F053EC10F042EC10F0F6EC12F004
:1017B000040108BF3AEF10F059EC19F0F6EC12F002
:1017C00000017B51E6EF0BF0EEEF0BF0420AD8B4CC
:1017D000EDEF0BF0420A31EF0CF0420A420EBB6F04
:1017E000BC697C671BD01F901F94A19C1F92828CA8
:1017F000200E1D6E1C6A020EEA6EE96AEE6AEE6A3F
:10180000EE6AEE6A206A216A226A1F96296AD59ECC
:101810002EC0BEFF2FC0BFFF32EF10F07CAF03D051
:101820001F8032EF10F07CA103D01F8632EF10F042
:101830007CA312D0828C1F96829C030E3CEC10F08D
:101840007D513CEC10F07E513CEC10F07F513CECB3
:1018500010F0A18C32EF10F0BC6B32EF10F039EFCA
:101860000CF0440AD8B438EF0CF0440AE0EF0CF066
:10187000440A440EBB6F1FA6B1D0BC691D501C6248
:1018800001D0ACD000EE7CF0030EE26E1DC0E1FF93
:10189000EF50E00BE66E036E03BE8BD027EE80F0B8
:1018A000EE443E0BD926DECFE6FFDECFE6FFE29028
:1018B0001DC0E1FFEE50266E2604E66EEE50256E4A
:1018C000D8A02504E66EEE50246ED8A02404E66E5F
:1018D000EE50236ED8A02304E66EBC6BD8A07ED059
:1018E000040EE126EECFE6FFEECFE6FFEECFE6FFF9
:1018F000EECFE6FFEECFE6FFEECFE6FFEECFE6FF60
:10190000EECFE6FFEECFE6FFEECFE6FFEECFE6FF4F
:10191000EECFE6FFEECFE6FFEECFE6FFEECFE6FF3F
:10192000EECFE6FFEECFE6FFEECFE6FFEECFE6FF2F
:10193000EECFE6FF010EDA6E1D50080FD96EE16E94
:10194000050E006EE2902650E65CDE6E2550E658ED
:10195000DE6E2450E658DE6E2350E658DE6E040E2E
:10196000D95EE15EE2802650DE5CE66E2550DE58F0
:10197000E66E2450DE58E66E2350DE58E66E002EEA
:10198000E1D71D50030FE16E03BCEE5031643150BE
:10199000E66E03AA0ED0EECFE6FFEECFE7FFE290B1
:1019A000E106EECFE6FFEECFE6FFEECFE6FFEECFAD
:1019B000E6FF200E1D26010EBC6F10D0E8EF0CF0E4
:1019C000490AD8B4E7EF0CF0490A0CEF0DF0490AC8
:1019D000490EBB6FBC691D501C62BC6B1C501D5C6A
:1019E000E83AE842E806070BBD6F22C0BEF021C00E
:1019F000BFF020C0C0F01FC0C1F080401F0B84B6F4
:101A0000E88AC26F07C0C3F008C0C4F00DC0C5F0BB
:101A100032EF10F014EF0DF0560AD8B413EF0DF0BA
:101A2000560A2BEF0DF0560ABC0EF66E210EF76E1D
:101A3000000EF86E00EEBBF0560EEE6EA69CA68E63
:101A40000900F550D8B432EF10F0EE6EF9D732EF4E
:101A500010F033EF0DF04F0AD8B432EF0DF04F0A0B
:101A60004FEF0DF04F0AA69EA69C2D50200FA96E99
:101A7000A6807C5103E1A8B01F9A03D07C2D01D031
:101A80001F8A4F0EBB6F1FBABC81A8B0BC8380B445
:101A9000BC8580B6BC8732EF10F057EF0DF04D0AD1
:101AA000D8B456EF0DF04D0A69EF0DF04D0A7C5198
:101AB000D8B41F9CD8B484907C05D8B41F8CD8B4FB
:101AC00084804D0EBB6F1FBCBC8132EF10F071EFF4
:101AD0000DF0500AD8B470EF0DF0500A8DEF0DF0F4
:101AE000500A7C5102E11F9804D07C2D06D080A8BA
:101AF0001F887D5131643150076E500EBB6F1FB887
:101B0000BC8180A2BD8180A8BD8307C0BEF008C093
:101B1000BFF032EF10F095EF0DF0530AD8B494EF08
:101B20000DF0530AE8EF0DF0530A7C51D8A405D00C
:101B30001FA02BD01F901F8228D07C2F08D01FA061
:101B400024D01F8229AAF4D72988D58E1ED07C2FB5
:101B500019D01FB01AD01FA218D022502110201067
:101B6000D8B413D01F9229AA0BD02B50BE6E2C5084
:101B7000BF6ED76AD66A29981F8029A6D58E05D050
:101B80001F8003D07C2F32EF10F0530EBB6F22501A
:101B900021102010D8A4BC811FA2BC911FA0BC831F
:101BA0001FB2BC8522C0BDF021C0BEF020C0BFF076
:101BB000020EE26E1C50E16EE6CFC0F0E6CFC1F03F
:101BC000E6CFC2F0E6CFC3F032EF10F0F0EF0DF049
:101BD000540AD8B4EFEF0DF0540A8DEF0EF0540A0A
:101BE000540EBB6F7C51BC6F08E1A69EA69CA96AEF
:101BF000A680A8CFBDF032EF10F07C071EE1A96AE5
:101C00007DC0A8FFD3EC12F0A69EA69CA680A8508B
:101C1000BC697D63BC6B7D6332EF10F0BBDB12AE41
:101C200032EF10F012920E0EF9EC10F0070E006E6B
:101C30002DC0A9FF16DB32EF10F07C0702E132EF76
:101C400010F07C0714E100EEBDF07D51030BEE6E49
:101C5000400DF328A96EA69EA69C210E006EA680BC
:101C6000A8CFEEFFA92A002EFAD732EF10F07C079A
:101C70001BE1BC6B00EE7DF0EE50030B400DF32832
:101C8000A96E210E006EEFCFA8FFD3EC12F0A69E36
:101C9000A69CA680A850EE6232EF10F0A92A002E72
:101CA000F2D7BC6932EF10F07C0715E100EEBDF011
:101CB0007D51030BEE6E400DF328210FA96EA69EF9
:101CC000A69C1E0E006EA680A8CFEEFFA92A002EAD
:101CD000FAD732EF10F07C071CE1BC6B00EE7DF010
:101CE000EE50030B400DF328210FA96E1E0E006E5F
:101CF000EFCFA8FFD3EC12F0A69EA69CA680A8501A
:101D0000EE6232EF10F0A92A002EF2D7BC6932EF52
:101D100010F032EF10F095EF0EF04C0AD8B494EFBB
:101D20000EF04C0AD5EF0EF04C0A4C0EBB6F12921F
:101D30007C512DE012827C072AE07C0704E1129E90
:101D4000BC6B32EF10F07C0713E1128E010EBC6FFA
:101D500012920C0EF9EC10F0540E8DDA3A0E8BDA6A
:101D6000070E006E2DC0A9FF7CDAD7D932EF10F034
:101D70007C0706E1000E12BE010EBC6F32EF10F0C0
:101D800032DA000E12BE010EBC6F32EF10F07D5140
:101D900030DA7E51006E00EE7FF0EE506CDA002EED
:101DA000FCD732EF10F0DDEF0EF0590AD8B4DCEFBB
:101DB0000EF0590A0AEF0FF0590A590EBB6F7C5109
:101DC00004E145EC12F032EF10F07C0704E14AEC3C
:101DD00012F032EF10F07C0709E17D517AEC12F03D
:101DE000C4CFBCF0C3CFBDF032EF10F07C0705E1EB
:101DF0007D514FEC12F032EF10F07C0707E17D517E
:101E00007EC0C4FF7FC0C3FF5DEC12F032EF10F064
:101E100012EF0FF05A0AD8B411EF0FF05A0A25EF5B
:101E20000FF05A0A550E7C19D8A432EF10F0AA0E02
:101E30007D19D8A432EF10F07EB1D0827EA1D0926D
:101E4000FF0032EF10F02DEF0FF0460AD8B42CEF60
:101E50000FF0460A4FEF0FF0460A828C460EBB6F1A
:101E6000829C9F0E3CEC10F0000E3CEC10F0BC6F1E
:101E7000000E3CEC10F0BD6F000E3CEC10F0BE6F9D
:101E8000828C0000829C050E3CEC10F0000E3CECB5
:101E900010F0BF6F828C32EF10F057EF0FF0450A51
:101EA000D8B456EF0FF0450ABBEF0FF0450A828C0D
:101EB000450EBB6F829C030E3CEC10F07C513CEC59
:101EC00010F0000E3CEC10F0000E3CEC10F0036A39
:101ED000006A000E3CEC10F0E83E09D0002EF9D765
:101EE000032EF6D7010EBC6F828C32EF10F0828C7D
:101EF0000000829C060E3CEC10F0828C0000829C5C
:101F0000D80E3CEC10F07C513CEC10F0000E3CEC98
:101F100010F0000E3CEC10F0828C0000829C050E4C
:101F20003CEC10F0000E3CEC10F0E8B0FBD7828CDB
:101F30000000829C030E3CEC10F07C513CEC10F055
:101F4000000E3CEC10F0000E3CEC10F0036A006A4E
:101F5000000E3CEC10F0E83E08D0002EF9D7032E1E
:101F6000F6D7BC69828C32EF10F0BC6B828C32EFFA
:101F700010F0C3EF0FF0520AD8B4C2EF0FF0520ABC
:101F8000E6EF0FF0520A828C0000829C030E3CECBC
:101F900010F07C51BC6F3CEC10F07D51BD6F3CECFF
:101FA00010F07E51BE6F3CEC10F0520EBB6F00EE95
:101FB000BFF0200E036E000E3CEC10F0EE6E032E10
:101FC000FAD7828C32EF10F0EEEF0FF0570AD8B448
:101FD000EDEF0FF0570A2EEF10F0570A828C000039
:101FE000829C060E3CEC10F0828C0000829C020E5B
:101FF0003CEC10F000EE7CF0230E036EEE503CEC57
:1020000010F0032EFBD7828C0000829C050E3CEC66
:1020100010F0000E3CEC10F0E8B0FBD7828C570EAD
:10202000BB6F829C030E3CEC10F07C513CEC10F03A
:102030007D513CEC10F07E513CEC10F000EE7FF056
:10204000200E036E000E3CEC10F0EE18D8A403D066
:10205000032EF8D7BC69828C32EF10F0000EBB6FF4
:1020600032EF10F0F6EC12F004010CBF32EF10F07A
:1020700075EC19F0D0EF0BF09E96C96E9EA6FED7B8
:10208000C95012000F0E9512828094900F0E831487
:102090009480828494940D6E8338F00B0D12948496
:1020A000F00E95161200C280C282C2B2FED7C29054
:1020B000C336C434C336E834036E0C5CD8B8E81CAD
:1020C000030806E203C00CF0C45031643150086EBE
:1020D000075031643150076E80B20850096E80B8E5
:1020E0001F9880B802D00BB81F88120E80141FB83A
:1020F000E8800B5E0B6ED8A405D009500A5E0A6E0C
:10210000D8B412000BA81FA8000EBB6EBA50CF0B9C
:10211000BBBE3009BA6E12AE120012820E0E69D822
:102120004D0E0BA2410EA7D83A0EA5D80950640D4A
:10213000F4CF0EF0F3BE0E2A0E5062D8250E1FA863
:10214000230E99D0E86AAED81290030E9CD84E0E9A
:10215000A9D8030E98D84E0EA5D8030E94D84E0ECB
:10216000A1D8020E90D84E0E9DD8280E84D8C10E4C
:1021700099D80C0E80D8060E7ED8010E7CD8280E79
:1021800091D8BC0EF66E210EF76E000EF86E60D878
:10219000200E71D8540E6FD83A0E6DD8070E006E0F
:1021A0002DC0A9FF5ED81282000E23D8C80EF66E8D
:1021B000210EF76E000EF86E4BD8120049504C35C8
:1021C000582076302E3133004F4B3D4D656E7500F3
:1021D0004D4F4445205553420000414C4552542038
:1021E000544D523100001290010E45D812801A0E43
:1021F00059D0129012B2400980093DD812801200C5
:102200000E6E0E380E240F0BD8B2160F07000EB844
:10221000150F0EBA300F0EBC600F0EBE200F070058
:102220000F6EE86AE8360EBEE82A07E1200E23D8D2
:102230000F380F0BD8B4F00E04D0300F1CD80F3865
:102240000F0B300F18D80F500F0B300F14D812008F
:102250001280A69CA68E0900F550D8B412000BD8A7
:10226000F7D71280A69CA69EA680A85004D8A92ABB
:10227000002EFAD71200116E113805D8115003D86C
:10228000010E10D81200849212B084828484F00966
:1022900083160F0B831200000000000000000000F6
:1022A00084941200106A102EFED7E82EFBD712007D
:1022B000F26AF16AF06A9D6AA06A9F6AA26AD08E89
:1022C000806A1F0E926E816A010E936EF19E826A81
:1022D000828C050E946E828C836A000E956E846AE1
:1022E000080E966E000EC76E300EC66EC950C36AD9
:1022F000C46A000EC26E0E0EC16E3E0EC06E000E9F
:10230000CD6ECF6ACE6A0B0EBD6E880EB16EB36A0B
:10231000B26A030ECA6ECC6ACB680F0EBA6EBC6A84
:10232000BB6A070EB46EB56A0C6A086A076A096A66
:10233000010E0A6E0B6A1F6A126A128E1C6A200E48
:102340001D6E206A216A226A20D800EE7BF010EE12
:10235000BBF00001010E006F00514008D8A0B7EF9C
:1023600011F0EE6AE66A0001002BACEF11F09E94CA
:102370009D849F84F294F28AF194A19CA08CA29CEB
:10238000F28CF28ECA84CD801200A69EA69CA96A09
:10239000A680A850030B400DF3282D6E120FA96ED6
:1023A00007EE80F0800E006EEE6A002EFDD7760EEE
:1023B000F66E240EF76E000EF86E0A0E016E036ABA
:1023C000A680070EA81604E0D8800336A82EFDD7F5
:1023D000A68E0900F5CF04F00900F5CF05F0A69E02
:1023E000A680A85020E007EE80F0006AA8AC04D0D8
:1023F0000450EE120550ED120350001403E1E92AD7
:10240000E92A0DD0A8BE05D00450EE1A0550EE1AE8
:1024100006D0E98C0450EE1A0550EE1AE99C002A09
:10242000200E0018E3E1A92A012EC9D700EE2EF0F4
:10243000040E006EA680A8CFEEFFA92A002EFAD7C0
:10244000A6801F8AA8B01F9A07EE80F0030E8114A1
:10245000EE10816E0F0E8314EE10836E2EC0BEFF41
:102460002FC0BFFFD56A3028E8A6D58C070BD51240
:10247000D76AD66A120080004000200010000800D1
:1024800004000080004000200010819C8198818E13
:10249000010E50D0819C8198819E010E4BD0036E1D
:1024A000060E016E819C03B0818C818843D881988F
:1024B00041D80332012EF6D71200F1DFD890C3368F
:1024C000C436080E016E819CC3B0818C818832D8DD
:1024D000819830D8C332012EF6D7080E016E819C48
:1024E000C4B0818C818826D8819824D8C432012E2A
:1024F000F6D71200D4DFC36A090E016E81881AD89C
:10250000819818D8938CC34281BCC38E012EF6D714
:10251000C46A060E016E81880DD881980BD8C4421A
:1025200081BCC48A012EF7D7818804D88198939CF6
:10253000819C00D0060E0000106E102EFED71200F7
:10254000A69CA68EA684A688C7EC12F0A6941200BC
:10255000A69CA68E400E016E0900F5CFEEFF012E5F
:10256000FBD71200C00EF616A0EC12F0A6840A00EB
:10257000020E016E200E026EEECFF5FF0F00022E4E
:10258000FBD7C7EC12F0012EF5D7A6941200F29EED
:10259000550EA76EAA0EA76EA682F28E1200A69CFA
:1025A000A69EA6801200A69CA69EA684F29EF29CE1
:1025B000550EA76EAA0EA76EA682F28EF28CA6B258
:0625C000FED7A6941200F4
:0A25C600696A686A140E6F6E080E51
:1025D0006D6E00016D6B706B7A6B010E6E6F6F6FBD
:1025E000FF0E716F6DBAF2EF12F01200FAEF12F0F7
:1025F000FDEF12F068A202EF13F06A6AAAEF13F07F
:1026000005EF13F068AC0AEF13F0689CAAEF13F023
:102610000DEF13F068A813EF13F068986D82AAEF1E
:1026200013F016EF13F068A41CEF13F068946D928A
:10263000AAEF13F01FEF13F068AA24EF13F0689AC3
:10264000AAEF13F027EF13F068A05BEF13F000017F
:102650006D6B6896689668966896706A716A726A19
:10266000736A746A756A766A776A786A796A7A6A66
:102670007B6A7C6A7D6A7E6A7F6A0401400E016F14
:10268000800E026F040E036F880E006FC00E066F7F
:10269000040E076F080E046F6E6A686A160E706E7D
:1026A000FF0E6B6E0001010E7A6F010E6E6FAAEFC6
:1026B00013F05EEF13F068A6AAEF13F0040EEA6EB3
:1026C0006C507C0BE96E0001EE50606FEE50616F54
:1026D000EE50626FEE50636F6C50796F68966C6B62
:1026E00060513C0B76EF13F07EEF13F0340AD8B450
:1026F0007DEF13F0340A84EF13F0340AABEC13F0DF
:102700009EEF13F08CEF13F0240AD8B48BEF13F084
:10271000240A92EF13F0240A8BEC18F09EEF13F0CA
:102720009AEF13F0040AD8B499EF13F0040A9EEF5D
:1027300013F0040AE6EC18F09EEF13F000016CA110
:10274000A8EF13F00401400E016F840E046F006FB8
:10275000AAEF13F0120000016351EA6E6251E96EB4
:10276000EE50646FEE50656FEE50666FEE50676F1F
:10277000EE50686FEE50696FEE506A6FEE506B6FFF
:102780000401400E016F080E046F000164BFDBEF0F
:1027900013F06A510008D8B4D0EF13F0D5EF13F05E
:1027A0006B510008D8B4D8EF13F0C80ED9EF13F06E
:1027B000880EDCEF13F0880E0401006F6D980001A5
:1027C000FF0E716F6451600BE8EF13F0F0EF13F040
:1027D000000AD8B4EFEF13F0000AF6EF13F0000A86
:1027E00012EC14F011EF14F0FEEF13F0200AD8B43D
:1027F000FDEF13F0200A04EF14F0200AFCEC17F0B0
:1028000011EF14F00CEF14F0400AD8B40BEF14F0F1
:10281000400A10EF14F0400A89EC18F011EF14F0A0
:102820006C811200655117EF14F01FEF14F0000ACD
:10283000D8B41EEF14F0000AFCEF14F0000A645143
:102840001F0B25EF14F02DEF14F0000AD8B42CEF75
:1028500014F0000A3FEF14F0000A04010751EA6E79
:102860000651E96E00016E51EE6EEF6A0401020E30
:10287000056FC80E046FF8EF14F047EF14F0010A6B
:10288000D8B446EF14F0010A7AEF14F0010A7A5135
:102890004CEF14F054EF14F0020AD8B453EF14F0D4
:1028A000020A59EF14F0020A6C8176EF14F061EF1E
:1028B00014F0030AD8B460EF14F0030A76EF14F0B2
:1028C000030A010E685DD8B073EF14F004010751DC
:1028D000EA6E0651E96EEE6AEF6A020E056FC80EE7
:1028E000046F74EF14F06C8176EF14F0F8EF14F0CD
:1028F00082EF14F0020AD8B481EF14F0020AF7EF65
:1029000014F0020A7A5187EF14F08FEF14F0020AE4
:10291000D8B48EEF14F0020AB3EF14F0020A685133
:102920000F0BD8A4AEEF14F004010751EA6E065164
:10293000E96E000168AFA1EF14F004010451A3EFA8
:1029400014F004010051040BEF6EEF42EF42EC6A09
:10295000020E056FC80E046FAFEF14F06C81F5EF37
:1029600014F0BBEF14F0030AD8B4BAEF14F0030A62
:10297000F4EF14F0030A04010751EA6E0651E96E00
:102980000F0EE26E700EE16E040EDA6E00016851F9
:102990008F0BD96ED946D946D946000ED926D8A074
:1029A000D3EF14F0DA2A68510F0B68AFDEEF14F0A2
:1029B000E3B2DEEF14F06C81F2EF14F068BFE7EFE2
:1029C00014F0E3B4E7EF14F06C81F2EF14F0DF5091
:1029D000040BEF6EEF42EF42EC6A0401020E056F4A
:1029E000C80E046FF5EF14F06C81F8EF14F06C81F1
:1029F000FBEF17F004EF15F0010AD8B403EF15F060
:102A0000010A06EF15F0010A0EEF15F0030AD8B41B
:102A10000DEF15F0030ABCEF15F0030A64511F0B0C
:102A200014EF15F01CEF15F0000AD8B41BEF15F0E9
:102A3000000A3DEF15F0000A665121EF15F029EF6D
:102A400015F0010AD8B428EF15F0010A38EF15F097
:102A5000010A65510108D8A431EF15F06E9332EFE9
:102A600015F06E830401056BC80E046F39EF15F085
:102A70006C81B8EF15F045EF15F0020AD8B444EFB9
:102A800015F0020AB7EF15F0020A7A514AEF15F075
:102A900052EF15F0020AD8B451EF15F0020A62EFB6
:102AA00015F0020A68510F0BD8A45DEF15F0040170
:102AB000056BC80E046F5EEF15F06C81B5EF15F075
:102AC0006AEF15F0030AD8B469EF15F0030AB4EF02
:102AD00015F0030A0F0EEA6E700EE96E040EE26E38
:102AE000000EE16E68510F0BD8B4ABEF15F0E9267C
:102AF000D8A07CEF15F0EA2A6847684768457C0B48
:102B0000E126D8A085EF15F0E22A68A39AEF15F028
:102B1000EFA297EF15F065510108D8A493EF15F0D7
:102B2000E76A95EF15F0840EE76E98EF15F06C816B
:102B3000ABEF15F0EFA4AAEF15F065510108D8A48A
:102B4000A6EF15F0880EE76EA8EF15F0840EE76E7D
:102B5000ABEF15F06C816CB1B2EF15F00401056BB1
:102B6000C80E046FB5EF15F06C81B8EF15F06C81ED
:102B7000FBEF17F0C4EF15F0050AD8B4C3EF15F05A
:102B8000050AD6EF15F0050A66AFCAEF15F06C819D
:102B9000D2EF15F0050E716F6651726F0401056B6F
:102BA000C80E046FFBEF17F0DEEF15F0060AD8B47D
:102BB000DDEF15F0060A19EF17F0060A716F67517D
:102BC000E4EF15F0ECEF15F0010AD8B4EBEF15F0D7
:102BD000010A07EF16F0010A000E736F000E746F02
:102BE000000E756F92EC19F0766F6B510008D8A447
:102BF00001EF16F076516A5DD8B001EF16F06A5118
:102C0000766F2CEC19F015EF17F00FEF16F0020AA3
:102C1000D8B40EEF16F0020A47EF16F0020A66511A
:102C200014EF16F01CEF16F0000AD8B41BEF16F0E4
:102C3000000A24EF16F0000A120E736F000E746F74
:102C4000000E756F25EF16F06C816CB143EF16F036
:102C5000020E7327000E7423752392EC19F0766F21
:102C6000020E735F000E745B755B6B510008D8A495
:102C700041EF16F076516A5DD8B041EF16F06A5117
:102C8000766F2CEC19F015EF17F04FEF16F0030AE2
:102C9000D8B44EEF16F0030AA1EF16F0030A6651FE
:102CA00054EF16F05CEF16F0000AD8B45BEF16F0A4
:102CB000000A66EF16F0000A5D0E736F000E746F67
:102CC000000E756F89EF16F06EEF16F0010AD8B49A
:102CD0006DEF16F0010A78EF16F0010A610E736FBE
:102CE000000E746F000E756F89EF16F080EF16F00E
:102CF000020AD8B47FEF16F0020A88EF16F0020A33
:102D0000770E736F000E746F000E756F89EF16F0FB
:102D10006C816CB19DEF16F092EC19F0766F6B51EF
:102D20000008D8A49BEF16F076516A5DD8B09BEFEF
:102D300016F06A51766F2CEC19F015EF17F0A9EF29
:102D400016F0210AD8B4A8EF16F0210AD7EF16F032
:102D5000210A6651AEEF16F0B6EF16F0000AD8B4AD
:102D6000B5EF16F0000ABEEF16F0000A240E736FDE
:102D7000000E746F000E756FBFEF16F06C816CB1B2
:102D8000D3EF16F092EC19F0766F6B510008D8A4CF
:102D9000D1EF16F076516A5DD8B0D1EF16F06A51D6
:102DA000766F2CEC19F015EF17F0DFEF16F0220A12
:102DB000D8B4DEEF16F0220A14EF17F0220A66519B
:102DC000E4EF16F0ECEF16F0000AD8B4EBEF16F0D3
:102DD000000AEEEF16F0000AF6EF16F0010AD8B47A
:102DE000F5EF16F0010A00EF17F0010A220E766FD8
:102DF0003B0E736F000E746F000E756F01EF17F0CE
:102E00006C816CB112EF17F06B510008D8A410EF71
:102E100017F076516A5DD8B010EF17F06A51766FEF
:102E20002CEC19F015EF17F06C81FBEF17F021EF88
:102E300017F0080AD8B420EF17F0080A32EF17F09D
:102E4000080A04010751EA6E0651E96E00016D514E
:102E5000EF6E0401010E056FC80E046FFBEF17F053
:102E60003AEF17F0090AD8B439EF17F0090A80EFE2
:102E700017F0090A66510108D8A07BEF17F0716AB4
:102E8000726A736A746A756A766A776A786A796A46
:102E90007A6A7B6A7C6A7D6A7E6A7F6A66516D6F38
:102EA00054EF17F05CEF17F0000AD8B45BEF17F09F
:102EB000000A60EF17F0000A020E7A6F75EF17F044
:102EC000030E7A6F0401400E096F000E0A6F050EA3
:102ED0000B6F880E086F400E0D6F400E0E6F050EC3
:102EE0000F6F480E0C6F1E0E716E0401056BC80E3D
:102EF000046F7CEF17F06C81FBEF17F088EF17F091
:102F00000A0AD8B487EF17F00A0AAEEF17F00A0AD8
:102F10007A518DEF17F095EF17F0030AD8B494EFBC
:102F200017F0030AA9EF17F0030A010E685DD8B085
:102F3000A6EF17F004010751EA6E0651E96EEF6A39
:102F4000010E056FC80E046FA7EF17F06C81AAEF92
:102F500017F06C81FBEF17F0B6EF17F00B0AD8B43F
:102F6000B5EF17F00B0AE6EF17F00B0A7A51BBEF3B
:102F700017F0C3EF17F0030AD8B4C2EF17F0030A33
:102F8000E1EF17F0030A010E685DD8B0DEEF17F02D
:102F90006651CDEF17F0D5EF17F0000AD8B4D4EF93
:102FA00017F0000ADBEF17F0000A0401056BC80EEA
:102FB000046FDCEF17F06C81DFEF17F06C81E2EF4C
:102FC00017F06C81FBEF17F0EEEF17F0070AD8B49B
:102FD000EDEF17F0070AF0EF17F0070AF8EF17F018
:102FE0000C0AD8B4F7EF17F00C0AF8EF17F00C0A38
:102FF0006C81FBEF17F01200655101EF18F009EF3B
:1030000018F0010AD8B408EF18F0010A26EF18F0FA
:10301000010A00EE7BF007C4E2FF06C4E1FF0001F5
:10302000010E006F00512408D8A01DEF18F0EECF5C
:10303000E6FF0001002B12EF18F00401240E056FCB
:10304000C80E046F88EF18F02EEF18F0090AD8B4F4
:103050002DEF18F0090A33EF18F0090A716F88EFA5
:1030600018F03BEF18F0030AD8B43AEF18F0030A4F
:103070004CEF18F0030A04010751EA6E0651E96E9D
:1030800000016F51EF6E0401010E056FC80E046F51
:1030900088EF18F054EF18F00B0AD8B453EF18F07B
:1030A0000B0A5EEF18F00B0A66516F6F0401056B97
:1030B000C80E046F88EF18F066EF18F0020AD8B453
:1030C00065EF18F0020A77EF18F0020A04010751C1
:1030D000EA6E0651E96E00017051EF6E0401010EB7
:1030E000056FC80E046F88EF18F07FEF18F00A0A1A
:1030F000D8B47EEF18F00A0A87EF18F00A0A665172
:10310000706F0401056BC80E046F88EF18F06C81B6
:1031100012006C81120000017951180B92EF18F027
:103120009AEF18F0000AD8B499EF18F0000ACFEF20
:1031300018F0000A71519FEF18F0A7EF18F0050A78
:10314000D8B4A6EF18F0050ABFEF18F0050A7251BF
:103150006E6EADEF18F0B5EF18F0000AD8B4B4EF0A
:1031600018F0000AB9EF18F0000A010E7A6FBBEFF1
:1031700018F0020E7A6FCBEF18F0C7EF18F0060ABE
:10318000D8B4C6EF18F0060ACBEF18F0060A2CECFC
:1031900019F0CBEF18F0E5EF18F0D7EF18F0080AA8
:1031A000D8B4D6EF18F0080ADBEF18F0080AE5EFFC
:1031B00018F0E3EF18F0100AD8B4E2EF18F0100A94
:1031C000E5EF18F0100AE5EF18F012000001795150
:1031D000180BEDEF18F0F5EF18F0000AD8B4F4EF83
:1031E00018F0000A15EF19F0000A7151FAEF18F003
:1031F00002EF19F0090AD8B401EF19F0090A09EF32
:1032000019F0090AFF0E716F04010351EA6E0251B1
:10321000E96E0401400E016F880E006F056BC80E49
:10322000046F2BEF19F01DEF19F0080AD8B41CEF4A
:1032300019F0080A21EF19F0080A2BEF19F029EF0D
:1032400019F0100AD8B428EF19F0100A2BEF19F072
:10325000100A2BEF19F012000001400E765DD8B075
:1032600037EF19F0FF0E716F765138EF19F0400EFD
:10327000765F786F0401056F0751EA6E0651E96EBB
:103280000001010E776F7751785DD8A052EF19F0E9
:1032900092EC19F0EE6E732B000E74237523772BCE
:1032A00043EF19F00401400E0419400B8809046F24
:1032B000120000EE7BF00BC4E2FF0AC4E1FF000144
:1032C000010E006F00512408D8A06CEF19F0E6CF72
:1032D000EEFF002B62EF19F00401240E096F085174
:1032E000400B400A8809086F120000EEBBF00FC4C3
:1032F000E2FF0EC4E1FF0001010E006F005124083F
:10330000D8A089EF19F0EFCFE6FFEE6A002B7EEF31
:1033100019F00401240E0D6F0C51400B400A88096E
:043320000C6F12001C
:0C33240000013E0E7325F66E330E74217E
:10333000F76E000E7521F86E0800F55012001201AC
:10334000000200000040D804AA001300010200019E
:103350000902290001010080320904000002030073
:10336000000009210101000122220007058103401C
:1033700000010705010340000106A0FF0901A101AA
:103380000903150026FF007508952481020904151C
:103390000026FF00750895249102C0040309041655
:1033A00003350058002D00500052004F004A0045E0
:1033B00000430054001803490050004C00350058E9
:0D33C000002000760030002E0031003300A8
:020000040030CA
:0100000024DB
:010001000EF0
:010002003FBE
:010003001EDE
:0100050001F9
:010006008178
:010008000FE8
:01000900C036
:01000A000FE6
:01000B00E014
:01000C000FE4
:01000D0040B2
:0200000400F00A
:100000000150617363616C2020584459445847592A
:10001000470000C404C3030000C202C101960007E8
:02002000FF00DF
:10004000014D4D32303031202058445944584759E1
:1000500047000004840383028201810000580207E4
:02006000CC00D2
:0200800002007C
:0200C00003003B
:00000001FF
