:10000000830100308A003C28FF0003088301D400EC
:100010000408D5000A08D6008A010608B5000B1CA2
:10002000122813282C280B10F030B5050508A7005E
:100030003508FF3A3705B6003608B904B60E0F305A
:10004000B60536083D3E840083130008A70527083F
:10005000A0043508B700322883120313A103340823
:1000600081000B1183015508840056088A0054084A
:100070008300FF0E7F0E090020308400533046209D
:1000800083018A11172C04068001840A0406031DCB
:1000900043280034820749346E3474346534723432
:1000A0006634613463346534203443344E3443342D
:1000B0004E3445345434203420342F34203420340A
:1000C0004D344D34323430343034313420345634BD
:1000D00065347234733469346F346E3420343034A0
:1000E0002E34363420342D3420344D34613472347F
:1000F00073342034323430343034313420342F34BB
:100100002034413475347434653475347234733446
:1001100020343A3420344D346934633468346534DF
:100120006C3420344D3441345534523459342034F5
:100130006534743420344734653472346134723435
:1001400064342034593456345234413455345434A0
:1001500020342F342034543465347334743465348B
:1001600075347234733420343A342034473465346F
:100170007234613472346434203450345234413433
:10018000543420346534743420344A346534613452
:100190006E342D344634723461346E3463346F34CB
:1001A000693473342034443445344C3448344F3447
:0601B00056344534003412
:1006D20083120313D1080319D203D1035208510420
:1006E200031D742B752B692B0313831208008312CD
:1006F2000313D000403083120313D1009C30D20088
:100702008A1169238A1109152030D1004E30D20096
:100712008A1169238A1104308906D0035008031D07
:10072200932B942B7B2B0313831208008312031346
:10073200D1005108031D9E2B9F2BB02BD00A2B08F2
:10074200031DA42BA52BA62BD00A0830831203135A
:100752005002031CAD2BAE2BAF2BD001C22B831248
:1007620003135008031DB62BB72BB92B0830D0004A
:1007720083120313D0032B08031DC02BC12BC22BE2
:10078200D003831203135008C62B031383120800ED
:1007920083120313D100F92B053083120313D00007
:1007A200102C043083120313D000102C0630831255
:1007B2000313D000102C023083120313D000102C2C
:1007C2000A3083120313D000102C08308312031353
:1007D200D000102C093083120313D000102C831286
:1007E2000313D001D00A102C83120313D001102C52
:0E07F200831203135108D3000830530203187A
:10080000F52B04308A000830530703188A0A820047
:10081000CD2BD22BD72BDC2BE12BE62BEB2BF02B8C
:10082000831203135008142C031383120800831639
:100830000313011F202C1C2C811B202C1F2C212C6E
:10084000252C811E252C242C262C2A2C011A2A2CFE
:10085000292C2B2C2F2C811D2F2C2E2C322C302C84
:100860000130332C00301138831603138100FF3020
:100870008600870188018312AC01AD01AE01AF0192
:10088000A030A200A030A3000A30A4000A30A500C6
:100890002508230487002408220488001F1007303D
:1008A00083169F003F30850089018312BD01083007
:1008B000BE000430BF000C30C0000230C1000A305E
:1008C000C2000630C3000E30C400C501C50A09309D
:1008D000C6000530C7000D30C8000330C9000B301A
:1008E000CA000730CB000F30CC00CD01B001B901F8
:1008F000B701A101A10ABB01BC01023003178D00A1
:1009000083168C130C1483120C080313AA002A0AF2
:10091000031D8B2C902C04302A020318912C902C50
:10092000932C922CBD2C6330AA00972C972C831605
:1009300003178C189C2C9D2C962C023083120317C5
:100940008D0003132A0803178C0083168C138B1356
:100950000C1555308D00AA308D008C14B02CB02CA5
:10096000831203130D1EB52CB62CAF2C8316031760
:100970000C11831203130D128B17831203178D01B1
:1009800083168C130C1483120C080313B100310866
:100990002A020318CC2CCD2CF62CB101B10AD12C93
:1009A000D12C831603178C18D62CD72CD02C83125D
:1009B00003178D010313310803178C0083168C1362
:1009C0008B130C1555308D00AA308D008C14E92C3A
:1009D000E92C831203130D1EEE2CEF2CE82C83164A
:1009E00003170C11831203130D128B17043083129B
:1009F00003178D0083168C130C1483120C08031339
:100A0000AB002B0803190A2D052D2B0303190A2D02
:100A1000092D0C2D0B2D352DAB010F2D0F2D831610
:100A200003178C18142D152D0E2D04308312031767
:100A30008D0003132B0803178C0083168C138B1364
:100A40000C1555308D00AA308D008C14282D282DC2
:100A5000831203130D1E2D2D2E2D272D8316031704
:100A60000C11831203130D128B170130831203171D
:100A70008D0083168C130C1483120C080313B4001E
:100A800034080A3A0319452D462D762D3408863A46
:100A900003194B2D4C2D762D0A30B400502D502DBE
:100AA000831603178C18552D562D4F2D01308312A8
:100AB00003178D000313340803178C0083168C135F
:100AC0008B130C1555308D00AA308D008C14692DB8
:100AD000692D831203130D1E6E2D6F2D682D831645
:100AE00003170C11831203130D128B1783120313B8
:100AF000061D7B2D7C2DD72D051A7F2D802DBF2D1A
:100B0000851E832D842DBF2D34080A3A031D892D9F
:100B10008A2D8D2D8630B400912D0A308312031357
:100B2000B400932D932D831603178C18982D992DAF
:100B3000922D0130831203178D000313340803171D
:100B40008C0083168C138B130C1555308D00AA3036
:100B50008D008C14AC2DAC2D831203130D1EB12D02
:100B6000B22DAB2D831603170C11831203130D1234
:100B70008B1783120313051EBE2DBF2DB92D8312B3
:100B8000031334080A3A031DC62DC72DCB2D01309F
:100B90008A1178238A11831203133408863A031DBD
:100BA000D22DD32DD72D02308A1178238A118312AA
:100BB0000313061DDC2DDD2D232E051AE02DE12D5E
:100BC000232E851AE42DE52D232E2B08031DE92D58
:100BD000EA2DED2DAB01AB0AF02D83120313AB010F
:100BE00083120313051EF92DF52D851EF92DF82D01
:100BF000FB2DFA2DF02DFD2DFD2D831603178C18DE
:100C0000022E032EFC2D0430831203178D000313D4
:100C10002B0803178C0083168C138B130C1555307F
:100C20008D00AA308D008C14162E162E83120313FD
:100C30000D1E1B2E1C2E152E831603170C1183124E
:100C400003130D128B1783120313061D282E292E52
:100C5000612E851A2C2E2D2E612E051E302E312E42
:100C6000612E6330AA00352E352E831603178C189B
:100C70003A2E3B2E342E0230831203178D000313BD
:100C80002A0803178C0083168C138B130C15553010
:100C90008D00AA308D008C144E2E4E2E831203131D
:100CA0000D1E532E542E4D2E831603170C11831236
:100CB00003130D128B1783120313851E602E612EF2
:100CC0005B2E8B158B168B17831203133408810050
:100CD000831203132108803A7F3E0318702E712E71
:100CE0000F2FA10A01308906061D772E782E962E29
:100CF000003009180130B00730083102031C812E82
:100D0000822E842E8914872E831203138910831256
:100D100003132A08310203188E2E8F2E912E0911EB
:100D2000952E8312031304308906B62E8312031303
:100D3000861C9B2E9C2EB12ECE0A2A082A07CF0095
:100D40004E084F020318A52EA62EAC2E89104F0870
:100D5000CE0004308906B02E8312031389140911C2
:100D6000B62E83120313CE018910091183120313C7
:100D7000061DBB2EBC2E0F2F3008643A031DC12E5A
:100D8000C22E0F2FB001851AC62EC72EEC2E4D088D
:100D9000031DCB2ECC2EEB2E051ACF2ED02EDA2E05
:100DA0003108AA002A082A07CF003108B200BC0186
:100DB000BC0AEB2E83120313B10A31082A0203186E
:100DC000E22EE32EE52E2A08B10083120313310828
:100DD000B300BB01BB0A052F83120313051AF12EC2
:100DE000F22E052F4D08031DF62EF72E052FB10309
:100DF0003108031DFC2EFD2EFF2EB101B10A831216
:100E000003133108B300BB01BB0A83120313CD0ADD
:100E100006304D02031C0D2F0E2F0F2FCD01831214
:100E20000313061C142F152F9A2F39080319192F95
:100E30001A2F992F8312031339088039BA003A0800
:100E40000319232F242F382FB91320080139A600A6
:100E500020102C08D00026088A1197238A11AC0094
:100E60002C088A11C9238A11A200A20EF030A20513
:100E70008312031339084039BA003A080319412F85
:100E8000422F562F391320080239A600A0102D0832
:100E9000D00026088A1197238A11AD002D088A11E7
:100EA000C9238A11A300A30EF030A30583120313F4
:100EB00039082039BA003A0803195F2F602F712FC3
:100EC000B91220080439A60020112E08D0002608E7
:100ED0008A1197238A11AE002E088A11C9238A111C
:100EE000A4008312031339081039BA003A08031911
:100EF0007A2F7B2F8C2F391220080839A600A011D9
:100F00002F08D00026088A1197238A11AF002F08D6
:100F10008A11C9238A11A50083120313230825040B
:100F200087002208240488003908031D982F992F70
:100F30001A2F9E2F83120313870188018312031334
:100F40003B080319A42FA52FCD2FBB01A82FA82F35
:100F5000831603178C18AD2FAE2FA72F83120317FC
:100F60008D010313330803178C0083168C138B1326
:100F70000C1555308D00AA308D008C14C02FC02F59
:100F8000831203130D1EC52FC62FBF2F8316031701
:100F90000C11831203130D128B17831203133C08D9
:100FA0000319D32FD42FFD2FBC01D72FD72F831692
:100FB00003178C18DC2FDD2FD62F02308312031776
:100FC0008D000313320803178C0083168C138B13C8
:100FD0000C1555308D00AA308D008C14F02FF02F99
:100FE000831203130D1EF52FF62FEF2F8316031711
:100FF0000C11831203130D128B17682E8A113C28D3
:02400E00BA3FB7
:00000001FF
